{"contracts/MonPaySubscription.sol":{"MonPaySubscription":{"abi":[{"inputs":[{"internalType":"address","name":"_wmon","type":"address"},{"internalType":"address","name":"_forwarder","type":"address"}],"stateMutability":"nonpayable","type":"constructor"},{"anonymous":false,"inputs":[{"indexed":true,"internalType":"address","name":"subscriber","type":"address"},{"indexed":true,"internalType":"uint256","name":"planId","type":"uint256"}],"name":"Cancelled","type":"event"},{"anonymous":false,"inputs":[{"indexed":true,"internalType":"uint256","name":"contentId","type":"uint256"},{"indexed":false,"internalType":"bool","name":"active","type":"bool"}],"name":"ContentToggled","type":"event"},{"anonymous":false,"inputs":[{"indexed":true,"internalType":"uint256","name":"contentId","type":"uint256"},{"indexed":true,"internalType":"address","name":"creator","type":"address"},{"indexed":false,"internalType":"string","name":"uri","type":"string"},{"indexed":false,"internalType":"string","name":"title","type":"string"}],"name":"ContentUploaded","type":"event"},{"anonymous":false,"inputs":[{"indexed":true,"internalType":"uint256","name":"planId","type":"uint256"},{"indexed":true,"internalType":"address","name":"creator","type":"address"},{"indexed":false,"internalType":"uint256","name":"price","type":"uint256"},{"indexed":false,"internalType":"uint256","name":"period","type":"uint256"},{"indexed":false,"internalType":"string","name":"name","type":"string"}],"name":"PlanCreated","type":"event"},{"anonymous":false,"inputs":[{"indexed":true,"internalType":"uint256","name":"planId","type":"uint256"},{"indexed":false,"internalType":"uint256","name":"price","type":"uint256"},{"indexed":false,"internalType":"string","name":"name","type":"string"},{"indexed":false,"internalType":"string","name":"description","type":"string"},{"indexed":false,"internalType":"bool","name":"active","type":"bool"}],"name":"PlanUpdated","type":"event"},{"anonymous":false,"inputs":[{"indexed":true,"internalType":"address","name":"subscriber","type":"address"},{"indexed":true,"internalType":"uint256","name":"planId","type":"uint256"},{"indexed":false,"internalType":"uint256","name":"months","type":"uint256"},{"indexed":false,"internalType":"uint256","name":"newExpiry","type":"uint256"}],"name":"Renewed","type":"event"},{"anonymous":false,"inputs":[{"indexed":true,"internalType":"address","name":"creator","type":"address"},{"indexed":false,"internalType":"uint256","name":"amount","type":"uint256"}],"name":"RevenueWithdrawn","type":"event"},{"anonymous":false,"inputs":[{"indexed":true,"internalType":"address","name":"subscriber","type":"address"},{"indexed":true,"internalType":"uint256","name":"planId","type":"uint256"},{"indexed":false,"internalType":"uint256","name":"months","type":"uint256"},{"indexed":false,"internalType":"uint256","name":"expiresAt","type":"uint256"},{"indexed":false,"internalType":"bool","name":"autoRenew","type":"bool"}],"name":"Subscribed","type":"event"},{"inputs":[],"name":"WMON","outputs":[{"internalType":"contract IERC20","name":"","type":"address"}],"stateMutability":"view","type":"function"},{"inputs":[{"internalType":"uint256","name":"planId","type":"uint256"}],"name":"cancel","outputs":[],"stateMutability":"nonpayable","type":"function"},{"inputs":[{"internalType":"address","name":"subscriber","type":"address"},{"internalType":"uint256","name":"planId","type":"uint256"},{"internalType":"uint256","name":"months","type":"uint256"}],"name":"chargeRenewal","outputs":[],"stateMutability":"nonpayable","type":"function"},{"inputs":[{"internalType":"uint256","name":"price","type":"uint256"},{"internalType":"uint256","name":"periodSeconds","type":"uint256"},{"internalType":"string","name":"name","type":"string"},{"internalType":"string","name":"description","type":"string"}],"name":"createPlan","outputs":[{"internalType":"uint256","name":"planId","type":"uint256"}],"stateMutability":"nonpayable","type":"function"},{"inputs":[{"internalType":"address","name":"","type":"address"},{"internalType":"uint256","name":"","type":"uint256"}],"name":"creatorContents","outputs":[{"internalType":"uint256","name":"","type":"uint256"}],"stateMutability":"view","type":"function"},{"inputs":[{"internalType":"address","name":"","type":"address"},{"internalType":"uint256","name":"","type":"uint256"}],"name":"creatorPlans","outputs":[{"internalType":"uint256","name":"","type":"uint256"}],"stateMutability":"view","type":"function"},{"inputs":[],"name":"forwarder","outputs":[{"internalType":"address","name":"","type":"address"}],"stateMutability":"view","type":"function"},{"inputs":[{"internalType":"uint256","name":"contentId","type":"uint256"}],"name":"getContent","outputs":[{"components":[{"internalType":"uint256","name":"id","type":"uint256"},{"internalType":"address","name":"creator","type":"address"},{"internalType":"string","name":"uri","type":"string"},{"internalType":"string","name":"title","type":"string"},{"internalType":"uint256","name":"createdAt","type":"uint256"},{"internalType":"bool","name":"active","type":"bool"}],"internalType":"struct MonPaySubscription.Content","name":"","type":"tuple"}],"stateMutability":"view","type":"function"},{"inputs":[{"internalType":"address","name":"creator","type":"address"}],"name":"getCreatorContents","outputs":[{"components":[{"internalType":"uint256","name":"id","type":"uint256"},{"internalType":"address","name":"creator","type":"address"},{"internalType":"string","name":"uri","type":"string"},{"internalType":"string","name":"title","type":"string"},{"internalType":"uint256","name":"createdAt","type":"uint256"},{"internalType":"bool","name":"active","type":"bool"}],"internalType":"struct MonPaySubscription.Content[]","name":"arr","type":"tuple[]"}],"stateMutability":"view","type":"function"},{"inputs":[{"internalType":"address","name":"creator","type":"address"}],"name":"getCreatorPlans","outputs":[{"components":[{"internalType":"uint256","name":"id","type":"uint256"},{"internalType":"address","name":"creator","type":"address"},{"internalType":"uint256","name":"price","type":"uint256"},{"internalType":"uint256","name":"period","type":"uint256"},{"internalType":"string","name":"name","type":"string"},{"internalType":"string","name":"description","type":"string"},{"internalType":"bool","name":"active","type":"bool"}],"internalType":"struct MonPaySubscription.Plan[]","name":"arr","type":"tuple[]"}],"stateMutability":"view","type":"function"},{"inputs":[{"internalType":"address","name":"creator","type":"address"},{"internalType":"address","name":"user","type":"address"}],"name":"isSubscriber","outputs":[{"internalType":"bool","name":"","type":"bool"}],"stateMutability":"view","type":"function"},{"inputs":[],"name":"nextContentId","outputs":[{"internalType":"uint256","name":"","type":"uint256"}],"stateMutability":"view","type":"function"},{"inputs":[],"name":"nextPlanId","outputs":[{"internalType":"uint256","name":"","type":"uint256"}],"stateMutability":"view","type":"function"},{"inputs":[{"internalType":"uint256","name":"","type":"uint256"}],"name":"plans","outputs":[{"internalType":"uint256","name":"id","type":"uint256"},{"internalType":"address","name":"creator","type":"address"},{"internalType":"uint256","name":"price","type":"uint256"},{"internalType":"uint256","name":"period","type":"uint256"},{"internalType":"string","name":"name","type":"string"},{"internalType":"string","name":"description","type":"string"},{"internalType":"bool","name":"active","type":"bool"}],"stateMutability":"view","type":"function"},{"inputs":[{"internalType":"uint256","name":"planId","type":"uint256"},{"internalType":"uint256","name":"months","type":"uint256"},{"internalType":"bool","name":"autoRenew_","type":"bool"}],"name":"subscribe","outputs":[],"stateMutability":"nonpayable","type":"function"},{"inputs":[{"internalType":"uint256","name":"planId","type":"uint256"},{"internalType":"uint256","name":"months","type":"uint256"},{"internalType":"bool","name":"autoRenew_","type":"bool"},{"internalType":"uint256","name":"value","type":"uint256"},{"internalType":"uint256","name":"deadline","type":"uint256"},{"internalType":"uint8","name":"v","type":"uint8"},{"internalType":"bytes32","name":"r","type":"bytes32"},{"internalType":"bytes32","name":"s","type":"bytes32"}],"name":"subscribeWithPermit","outputs":[],"stateMutability":"nonpayable","type":"function"},{"inputs":[{"internalType":"address","name":"","type":"address"},{"internalType":"uint256","name":"","type":"uint256"}],"name":"subscriptions","outputs":[{"internalType":"uint256","name":"planId","type":"uint256"},{"internalType":"address","name":"subscriber","type":"address"},{"internalType":"uint256","name":"expiresAt","type":"uint256"},{"internalType":"bool","name":"autoRenew","type":"bool"}],"stateMutability":"view","type":"function"},{"inputs":[{"internalType":"uint256","name":"contentId","type":"uint256"},{"internalType":"bool","name":"active","type":"bool"}],"name":"toggleContent","outputs":[],"stateMutability":"nonpayable","type":"function"},{"inputs":[{"internalType":"uint256","name":"planId","type":"uint256"},{"internalType":"uint256","name":"price","type":"uint256"},{"internalType":"string","name":"name","type":"string"},{"internalType":"string","name":"description","type":"string"},{"internalType":"bool","name":"active","type":"bool"}],"name":"updatePlan","outputs":[],"stateMutability":"nonpayable","type":"function"},{"inputs":[{"internalType":"string","name":"uri","type":"string"},{"internalType":"string","name":"title","type":"string"}],"name":"uploadContent","outputs":[{"internalType":"uint256","name":"contentId","type":"uint256"}],"stateMutability":"nonpayable","type":"function"}],"evm":{"bytecode":{"linkReferences":{},"object":"60c06040526001600055600180553480156200001a57600080fd5b5060405162002a8838038062002a888339810160408190526200003d91620000cf565b6001600160a01b038216158015906200005e57506001600160a01b03811615155b6200009a5760405162461bcd60e51b81526020600482015260086024820152673130b21030b2323960c11b604482015260640160405180910390fd5b6001600160a01b0391821660a0521660805262000107565b80516001600160a01b0381168114620000ca57600080fd5b919050565b60008060408385031215620000e357600080fd5b620000ee83620000b2565b9150620000fe60208401620000b2565b90509250929050565b60805160a05161293f620001496000396000818161033b01528181610aa20152818161163e0152611e0501526000818161037a0152611f27015261293f6000f3fe608060405234801561001057600080fd5b506004361061012c5760003560e01c8063623da3d1116100ad578063c9f66f7f11610071578063c9f66f7f146102f0578063dcc9e3fc14610310578063e9cc297414610323578063f1435d2914610336578063f645d4f91461037557600080fd5b8063623da3d11461020a5780638f3ae58314610281578063b162061614610294578063c20267b0146102ba578063c5f7b35a146102cd57600080fd5b80633ad3d548116100f45780633ad3d548146101a8578063401a9685146101bb57806340374733146101ce57806340e58ee5146101ee5780635f8d26b21461020157600080fd5b80630a248d7f146101315780630b7ad54c1461014d57806321d633d81461016d5780632f57f3f71461018257806338d7a8ff14610195575b600080fd5b61013a60015481565b6040519081526020015b60405180910390f35b61016061015b366004611fa0565b61039c565b604051610144919061206c565b61018061017b3660046120e0565b610522565b005b61013a610190366004612177565b610620565b6101806101a33660046121fa565b61088a565b61013a6101b6366004612233565b610cbb565b61013a6101c93660046122bb565b610ed0565b6101e16101dc3660046122e5565b610f01565b6040516101449190612300565b6101806101fc366004611fa0565b6111b0565b61013a60005481565b6102576102183660046122bb565b6005602090815260009283526040808420909152908252902080546001820154600283015460039093015491926001600160a01b039091169160ff1684565b604080519485526001600160a01b0390931660208501529183015215156060820152608001610144565b61018061028f366004612362565b61126e565b6102a76102a2366004611fa0565b61131c565b6040516101449796959493929190612392565b6101806102c83660046123ee565b611477565b6102e06102db366004612465565b611713565b6040519015158152602001610144565b6103036102fe3660046122e5565b61183d565b6040516101449190612498565b61013a61031e3660046122bb565b611b33565b610180610331366004612562565b611b4f565b61035d7f000000000000000000000000000000000000000000000000000000000000000081565b6040516001600160a01b039091168152602001610144565b61035d7f000000000000000000000000000000000000000000000000000000000000000081565b6103a4611f5f565b600082815260066020908152604091829020825160c0810184528154815260018201546001600160a01b03169281019290925260028101805492939192918401916103ee90612595565b80601f016020809104026020016040519081016040528092919081815260200182805461041a90612595565b80156104675780601f1061043c57610100808354040283529160200191610467565b820191906000526020600020905b81548152906001019060200180831161044a57829003601f168201915b5050505050815260200160038201805461048090612595565b80601f01602080910402602001604051908101604052809291908181526020018280546104ac90612595565b80156104f95780601f106104ce576101008083540402835291602001916104f9565b820191906000526020600020905b8154815290600101906020018083116104dc57829003601f168201915b50505091835250506004820154602082015260059091015460ff16151560409091015292915050565b8661052b611f1b565b6000828152600260205260409020600101546001600160a01b0390811691161461058a5760405162461bcd60e51b815260206004820152600b60248201526a3737ba1031b932b0ba37b960a91b60448201526064015b60405180910390fd5b6000888152600260208190526040909120908101889055600481016105b0878983612634565b50600581016105c0858783612634565b5060068101805460ff191684151517905560405189907fba46c663d468954f8d44e930ccea7a97979c92200e52fc663c333c07f2a7de0d9061060d908b908b908b908b908b908b9061271e565b60405180910390a2505050505050505050565b600080871161065b5760405162461bcd60e51b8152602060048201526007602482015266070726963653d360cc1b6044820152606401610581565b620151808610156106a15760405162461bcd60e51b815260206004820152601060248201526f1c195c9a5bd9081d1bdbc81cdb585b1b60821b6044820152606401610581565b6000805490806106b083612777565b9190505590506040518060e001604052808281526020016106cf611f1b565b6001600160a01b0316815260200188815260200187815260200186868080601f016020809104026020016040519081016040528093929190818152602001838380828437600092019190915250505090825250604080516020601f87018190048102820181019092528581529181019190869086908190840183828082843760009201829052509385525050600160209384018190528583526002808552604093849020865181559486015191850180546001600160a01b0319166001600160a01b039093169290921790915591840151918301919091555060608201516003820155608082015160048201906107c69082612790565b5060a082015160058201906107db9082612790565b5060c091909101516006909101805460ff191691151591909117905560036000610803611f1b565b6001600160a01b031681526020808201929092526040016000908120805460018101825590825291902001819055610839611f1b565b6001600160a01b0316817f9184aa9cb3a12afcaa9b180c66281aef283ce89864edec70edc869891754f9fd898989896040516108789493929190612850565b60405180910390a39695505050505050565b60018210156108c75760405162461bcd60e51b81526020600482015260096024820152686d6f6e7468733e3d3160b81b6044820152606401610581565b6000838152600260208181526040808420815160e0810183528154815260018201546001600160a01b03169381019390935292830154908201526003820154606082015260048201805491929160808401919061092390612595565b80601f016020809104026020016040519081016040528092919081815260200182805461094f90612595565b801561099c5780601f106109715761010080835404028352916020019161099c565b820191906000526020600020905b81548152906001019060200180831161097f57829003601f168201915b505050505081526020016005820180546109b590612595565b80601f01602080910402602001604051908101604052809291908181526020018280546109e190612595565b8015610a2e5780601f10610a0357610100808354040283529160200191610a2e565b820191906000526020600020905b815481529060010190602001808311610a1157829003601f168201915b50505091835250506006919091015460ff16151560209091015260c0810151909150610a8c5760405162461bcd60e51b815260206004820152600d60248201526c34b730b1ba34bb3290383630b760991b6044820152606401610581565b6000838260400151610a9e919061287a565b90507f00000000000000000000000000000000000000000000000000000000000000006001600160a01b03166323b872dd610ad7611f1b565b60208501516040516001600160e01b031960e085901b1681526001600160a01b03928316600482015291166024820152604481018490526064016020604051808303816000875af1158015610b30573d6000803e3d6000fd5b505050506040513d601f19601f82011682018060405250810190610b549190612891565b610b965760405162461bcd60e51b81526020600482015260136024820152721d1c985b9cd9995c919c9bdb4819985a5b1959606a1b6044820152606401610581565b600060056000610ba4611f1b565b6001600160a01b03166001600160a01b0316815260200190815260200160002060008781526020019081526020016000209050600042826002015411610bea5742610bf0565b81600201545b8783559050610bfd611f1b565b6001830180546001600160a01b0319166001600160a01b03929092169190911790556060840151610c2f90879061287a565b610c3990826128ae565b600283015560038201805460ff191686151517905586610c57611f1b565b6001600160a01b03167f98dce42f43ceed44f84a429603ec0585f84dd77f9e9aa904ad1b7a9c9c81bc1388856002015489604051610caa9392919092835260208301919091521515604082015260600190565b60405180910390a350505050505050565b600083610cf95760405162461bcd60e51b815260206004820152600c60248201526b1d5c9a481c995c5d5a5c995960a21b6044820152606401610581565b60018054906000610d0983612777565b91905055905060046000610d1b611f1b565b6001600160a01b031681526020808201929092526040908101600090812080546001810182559082529083902001839055805160c08101909152828152908101610d63611f1b565b6001600160a01b0316815260200186868080601f016020809104026020016040519081016040528093929190818152602001838380828437600092019190915250505090825250604080516020601f8701819004810282018101909252858152918101919086908690819084018382808284376000920182905250938552505042602080850191909152600160409485018190528684526006825292849020855181559085015192810180546001600160a01b0319166001600160a01b039094169390931790925550908201516002820190610e3f9082612790565b5060608201516003820190610e549082612790565b506080820151600482015560a0909101516005909101805460ff1916911515919091179055610e81611f1b565b6001600160a01b0316817f8daa74a83f2eb8d1ef28b9efad4412c0afce7cb2deeea7e197c4b1e3d4bc5c5487878787604051610ec094939291906128c1565b60405180910390a3949350505050565b60046020528160005260406000208181548110610eec57600080fd5b90600052602060002001600091509150505481565b6001600160a01b0381166000908152600460209081526040808320805482518185028101850190935280835260609493830182828015610f6057602002820191906000526020600020905b815481526020019060010190808311610f4c575b50505050509050805167ffffffffffffffff811115610f8157610f816125cf565b604051908082528060200260200182016040528015610fba57816020015b610fa7611f5f565b815260200190600190039081610f9f5790505b50915060005b81518110156111a95760066000838381518110610fdf57610fdf6128f3565b602002602001015181526020019081526020016000206040518060c0016040529081600082015481526020016001820160009054906101000a90046001600160a01b03166001600160a01b03166001600160a01b0316815260200160028201805461104990612595565b80601f016020809104026020016040519081016040528092919081815260200182805461107590612595565b80156110c25780601f10611097576101008083540402835291602001916110c2565b820191906000526020600020905b8154815290600101906020018083116110a557829003601f168201915b505050505081526020016003820180546110db90612595565b80601f016020809104026020016040519081016040528092919081815260200182805461110790612595565b80156111545780601f1061112957610100808354040283529160200191611154565b820191906000526020600020905b81548152906001019060200180831161113757829003601f168201915b50505091835250506004820154602082015260059091015460ff161515604090910152835184908390811061118b5761118b6128f3565b602002602001018190525080806111a190612777565b915050610fc0565b5050919050565b6000600560006111be611f1b565b6001600160a01b03168152602080820192909252604090810160009081208582529092529020805490915082146112205760405162461bcd60e51b815260206004820152600660248201526537379039bab160d11b6044820152606401610581565b60038101805460ff1916905581611235611f1b565b6001600160a01b03167f36ea5cd5608625e789af0282eecdb4eae1cb7c1cf6d0ec3f9a84f35be850260b60405160405180910390a35050565b6000828152600660205260409020611284611f1b565b60018201546001600160a01b039081169116146112cf5760405162461bcd60e51b81526020600482015260096024820152683737ba1037bbb732b960b91b6044820152606401610581565b60058101805460ff191683151590811790915560405190815283907f8e967a27b78a41ef542ae8605776d411c12e7033f60eb40be0d4066ff41991f29060200160405180910390a2505050565b60026020819052600091825260409091208054600182015492820154600383015460048401805493956001600160a01b031694929391929161135d90612595565b80601f016020809104026020016040519081016040528092919081815260200182805461138990612595565b80156113d65780601f106113ab576101008083540402835291602001916113d6565b820191906000526020600020905b8154815290600101906020018083116113b957829003601f168201915b5050505050908060050180546113eb90612595565b80601f016020809104026020016040519081016040528092919081815260200182805461141790612595565b80156114645780601f1061143957610100808354040283529160200191611464565b820191906000526020600020905b81548152906001019060200180831161144757829003601f168201915b5050506006909301549192505060ff1687565b6000888152600260208181526040808420815160e0810183528154815260018201546001600160a01b0316938101939093529283015490820152600382015460608201526004820180549192916080840191906114d390612595565b80601f01602080910402602001604051908101604052809291908181526020018280546114ff90612595565b801561154c5780601f106115215761010080835404028352916020019161154c565b820191906000526020600020905b81548152906001019060200180831161152f57829003601f168201915b5050505050815260200160058201805461156590612595565b80601f016020809104026020016040519081016040528092919081815260200182805461159190612595565b80156115de5780601f106115b3576101008083540402835291602001916115de565b820191906000526020600020905b8154815290600101906020018083116115c157829003601f168201915b50505091835250506006919091015460ff16151560209091015260c081015190915061163c5760405162461bcd60e51b815260206004820152600d60248201526c34b730b1ba34bb3290383630b760991b6044820152606401610581565b7f00000000000000000000000000000000000000000000000000000000000000006001600160a01b031663d505accf611673611f1b565b60208401516040516001600160e01b031960e085901b1681526001600160a01b03928316600482015291166024820152604481018990526064810188905260ff8716608482015260a4810186905260c4810185905260e401600060405180830381600087803b1580156116e557600080fd5b505af11580156116f9573d6000803e3d6000fd5b5050505061170889898961088a565b505050505050505050565b6001600160a01b03821660009081526003602090815260408083208054825181850281018501909352808352849383018282801561177057602002820191906000526020600020905b81548152602001906001019080831161175c575b5050505050905060005b8151811015611830576001600160a01b0384166000908152600560205260408120835182908590859081106117b1576117b16128f3565b602090810291909101810151825281810192909252604090810160002081516080810183528154815260018201546001600160a01b03169381019390935260028101549183018290526003015460ff1615156060830152909150421161181d5760019350505050611837565b508061182881612777565b91505061177a565b5060009150505b92915050565b6001600160a01b038116600090815260036020908152604080832080548251818502810185019093528083526060949383018282801561189c57602002820191906000526020600020905b815481526020019060010190808311611888575b50505050509050805167ffffffffffffffff8111156118bd576118bd6125cf565b60405190808252806020026020018201604052801561193957816020015b6119266040518060e001604052806000815260200160006001600160a01b03168152602001600081526020016000815260200160608152602001606081526020016000151581525090565b8152602001906001900390816118db5790505b50915060005b81518110156111a9576002600083838151811061195e5761195e6128f3565b602002602001015181526020019081526020016000206040518060e0016040529081600082015481526020016001820160009054906101000a90046001600160a01b03166001600160a01b03166001600160a01b0316815260200160028201548152602001600382015481526020016004820180546119dc90612595565b80601f0160208091040260200160405190810160405280929190818152602001828054611a0890612595565b8015611a555780601f10611a2a57610100808354040283529160200191611a55565b820191906000526020600020905b815481529060010190602001808311611a3857829003601f168201915b50505050508152602001600582018054611a6e90612595565b80601f0160208091040260200160405190810160405280929190818152602001828054611a9a90612595565b8015611ae75780601f10611abc57610100808354040283529160200191611ae7565b820191906000526020600020905b815481529060010190602001808311611aca57829003601f168201915b50505091835250506006919091015460ff1615156020909101528351849083908110611b1557611b156128f3565b60200260200101819052508080611b2b90612777565b91505061193f565b60036020528160005260406000208181548110610eec57600080fd5b6001811015611b8c5760405162461bcd60e51b81526020600482015260096024820152686d6f6e7468733e3d3160b81b6044820152606401610581565b6000828152600260208181526040808420815160e0810183528154815260018201546001600160a01b031693810193909352928301549082015260038201546060820152600482018054919291608084019190611be890612595565b80601f0160208091040260200160405190810160405280929190818152602001828054611c1490612595565b8015611c615780601f10611c3657610100808354040283529160200191611c61565b820191906000526020600020905b815481529060010190602001808311611c4457829003601f168201915b50505050508152602001600582018054611c7a90612595565b80601f0160208091040260200160405190810160405280929190818152602001828054611ca690612595565b8015611cf35780601f10611cc857610100808354040283529160200191611cf3565b820191906000526020600020905b815481529060010190602001808311611cd657829003601f168201915b50505091835250506006919091015460ff90811615156020928301526001600160a01b03871660009081526005835260408082208883529093529190912060038101549293509116611d775760405162461bcd60e51b815260206004820152600d60248201526c30baba37a932b732bb9037b33360991b6044820152606401610581565b4281600201541115611dbd5760405162461bcd60e51b815260206004820152600f60248201526e1b9bdd081e595d08195e1c1a5c9959608a1b6044820152606401610581565b6000838360400151611dcf919061287a565b60208401516040516323b872dd60e01b81526001600160a01b0389811660048301529182166024820152604481018390529192507f000000000000000000000000000000000000000000000000000000000000000016906323b872dd906064016020604051808303816000875af1158015611e4e573d6000803e3d6000fd5b505050506040513d601f19601f82011682018060405250810190611e729190612891565b611eb45760405162461bcd60e51b81526020600482015260136024820152721d1c985b9cd9995c919c9bdb4819985a5b1959606a1b6044820152606401610581565b60608301514290611ec690869061287a565b611ed090826128ae565b6002840181905560408051878152602081019290925287916001600160a01b038a16917f97d5a61531816e9a24ba9de00a9c6c7e9e779fe86f65ee2f1da5c2699a31831c9101610caa565b60006001600160a01b037f0000000000000000000000000000000000000000000000000000000000000000163303611f5a575060271936013560601c90565b503390565b6040518060c001604052806000815260200160006001600160a01b031681526020016060815260200160608152602001600081526020016000151581525090565b600060208284031215611fb257600080fd5b5035919050565b6000815180845260005b81811015611fdf57602081850181015186830182015201611fc3565b506000602082860101526020601f19601f83011685010191505092915050565b8051825260018060a01b0360208201511660208301526000604082015160c0604085015261203060c0850182611fb9565b9050606083015184820360608601526120498282611fb9565b9150506080830151608085015260a0830151151560a08501528091505092915050565b60208152600061207f6020830184611fff565b9392505050565b60008083601f84011261209857600080fd5b50813567ffffffffffffffff8111156120b057600080fd5b6020830191508360208285010111156120c857600080fd5b9250929050565b80151581146120dd57600080fd5b50565b600080600080600080600060a0888a0312156120fb57600080fd5b8735965060208801359550604088013567ffffffffffffffff8082111561212157600080fd5b61212d8b838c01612086565b909750955060608a013591508082111561214657600080fd5b506121538a828b01612086565b9094509250506080880135612167816120cf565b8091505092959891949750929550565b6000806000806000806080878903121561219057600080fd5b8635955060208701359450604087013567ffffffffffffffff808211156121b657600080fd5b6121c28a838b01612086565b909650945060608901359150808211156121db57600080fd5b506121e889828a01612086565b979a9699509497509295939492505050565b60008060006060848603121561220f57600080fd5b83359250602084013591506040840135612228816120cf565b809150509250925092565b6000806000806040858703121561224957600080fd5b843567ffffffffffffffff8082111561226157600080fd5b61226d88838901612086565b9096509450602087013591508082111561228657600080fd5b5061229387828801612086565b95989497509550505050565b80356001600160a01b03811681146122b657600080fd5b919050565b600080604083850312156122ce57600080fd5b6122d78361229f565b946020939093013593505050565b6000602082840312156122f757600080fd5b61207f8261229f565b6000602080830181845280855180835260408601915060408160051b870101925083870160005b8281101561235557603f19888603018452612343858351611fff565b94509285019290850190600101612327565b5092979650505050505050565b6000806040838503121561237557600080fd5b823591506020830135612387816120cf565b809150509250929050565b87815260018060a01b038716602082015285604082015284606082015260e0608082015260006123c560e0830186611fb9565b82810360a08401526123d78186611fb9565b91505082151560c083015298975050505050505050565b600080600080600080600080610100898b03121561240b57600080fd5b88359750602089013596506040890135612424816120cf565b9550606089013594506080890135935060a089013560ff8116811461244857600080fd5b979a969950949793969295929450505060c08201359160e0013590565b6000806040838503121561247857600080fd5b6124818361229f565b915061248f6020840161229f565b90509250929050565b60006020808301818452808551808352604092508286019150828160051b87010184880160005b8381101561255457888303603f19018552815180518452878101516001600160a01b03168885015286810151878501526060808201519085015260808082015160e0828701819052919061251583880182611fb9565b9250505060a080830151868303828801526125308382611fb9565b60c094850151151597909401969096525050948701949250908601906001016124bf565b509098975050505050505050565b60008060006060848603121561257757600080fd5b6125808461229f565b95602085013595506040909401359392505050565b600181811c908216806125a957607f821691505b6020821081036125c957634e487b7160e01b600052602260045260246000fd5b50919050565b634e487b7160e01b600052604160045260246000fd5b601f82111561262f57600081815260208120601f850160051c8101602086101561260c5750805b601f850160051c820191505b8181101561262b57828155600101612618565b5050505b505050565b67ffffffffffffffff83111561264c5761264c6125cf565b6126608361265a8354612595565b836125e5565b6000601f841160018114612694576000851561267c5750838201355b600019600387901b1c1916600186901b1783556126ee565b600083815260209020601f19861690835b828110156126c557868501358255602094850194600190920191016126a5565b50868210156126e25760001960f88860031b161c19848701351681555b505060018560011b0183555b5050505050565b81835281816020850137506000828201602090810191909152601f909101601f19169091010190565b8681526080602082015260006127386080830187896126f5565b828103604084015261274b8186886126f5565b9150508215156060830152979650505050505050565b634e487b7160e01b600052601160045260246000fd5b60006001820161278957612789612761565b5060010190565b815167ffffffffffffffff8111156127aa576127aa6125cf565b6127be816127b88454612595565b846125e5565b602080601f8311600181146127f357600084156127db5750858301515b600019600386901b1c1916600185901b17855561262b565b600085815260208120601f198616915b8281101561282257888601518255948401946001909101908401612803565b50858210156128405787850151600019600388901b60f8161c191681555b5050505050600190811b01905550565b8481528360208201526060604082015260006128706060830184866126f5565b9695505050505050565b808202811582820484141761183757611837612761565b6000602082840312156128a357600080fd5b815161207f816120cf565b8082018082111561183757611837612761565b6040815260006128d56040830186886126f5565b82810360208401526128e88185876126f5565b979650505050505050565b634e487b7160e01b600052603260045260246000fdfea2646970667358221220426170be234ff4009b41625570461add0d3b144eb85083ab39cfcf04af6adedd64736f6c63430008150033","opcodes":"PUSH1 0xC0 PUSH1 0x40 MSTORE PUSH1 0x1 PUSH1 0x0 SSTORE PUSH1 0x1 DUP1 SSTORE CALLVALUE DUP1 ISZERO PUSH3 0x1A JUMPI PUSH1 0x0 DUP1 REVERT JUMPDEST POP PUSH1 0x40 MLOAD PUSH3 0x2A88 CODESIZE SUB DUP1 PUSH3 0x2A88 DUP4 CODECOPY DUP2 ADD PUSH1 0x40 DUP2 SWAP1 MSTORE PUSH3 0x3D SWAP2 PUSH3 0xCF JUMP JUMPDEST PUSH1 0x1 PUSH1 0x1 PUSH1 0xA0 SHL SUB DUP3 AND ISZERO DUP1 ISZERO SWAP1 PUSH3 0x5E JUMPI POP PUSH1 0x1 PUSH1 0x1 PUSH1 0xA0 SHL SUB DUP2 AND ISZERO ISZERO JUMPDEST PUSH3 0x9A JUMPI PUSH1 0x40 MLOAD PUSH3 0x461BCD PUSH1 0xE5 SHL DUP2 MSTORE PUSH1 0x20 PUSH1 0x4 DUP3 ADD MSTORE PUSH1 0x8 PUSH1 0x24 DUP3 ADD MSTORE PUSH8 0x3130B21030B23239 PUSH1 0xC1 SHL PUSH1 0x44 DUP3 ADD MSTORE PUSH1 0x64 ADD PUSH1 0x40 MLOAD DUP1 SWAP2 SUB SWAP1 REVERT JUMPDEST PUSH1 0x1 PUSH1 0x1 PUSH1 0xA0 SHL SUB SWAP2 DUP3 AND PUSH1 0xA0 MSTORE AND PUSH1 0x80 MSTORE PUSH3 0x107 JUMP JUMPDEST DUP1 MLOAD PUSH1 0x1 PUSH1 0x1 PUSH1 0xA0 SHL SUB DUP2 AND DUP2 EQ PUSH3 0xCA JUMPI PUSH1 0x0 DUP1 REVERT JUMPDEST SWAP2 SWAP1 POP JUMP JUMPDEST PUSH1 0x0 DUP1 PUSH1 0x40 DUP4 DUP6 SUB SLT ISZERO PUSH3 0xE3 JUMPI PUSH1 0x0 DUP1 REVERT JUMPDEST PUSH3 0xEE DUP4 PUSH3 0xB2 JUMP JUMPDEST SWAP2 POP PUSH3 0xFE PUSH1 0x20 DUP5 ADD PUSH3 0xB2 JUMP JUMPDEST SWAP1 POP SWAP3 POP SWAP3 SWAP1 POP JUMP JUMPDEST PUSH1 0x80 MLOAD PUSH1 0xA0 MLOAD PUSH2 0x293F PUSH3 0x149 PUSH1 0x0 CODECOPY PUSH1 0x0 DUP2 DUP2 PUSH2 0x33B ADD MSTORE DUP2 DUP2 PUSH2 0xAA2 ADD MSTORE DUP2 DUP2 PUSH2 0x163E ADD MSTORE PUSH2 0x1E05 ADD MSTORE PUSH1 0x0 DUP2 DUP2 PUSH2 0x37A ADD MSTORE PUSH2 0x1F27 ADD MSTORE PUSH2 0x293F PUSH1 0x0 RETURN INVALID PUSH1 0x80 PUSH1 0x40 MSTORE CALLVALUE DUP1 ISZERO PUSH2 0x10 JUMPI PUSH1 0x0 DUP1 REVERT JUMPDEST POP PUSH1 0x4 CALLDATASIZE LT PUSH2 0x12C JUMPI PUSH1 0x0 CALLDATALOAD PUSH1 0xE0 SHR DUP1 PUSH4 0x623DA3D1 GT PUSH2 0xAD JUMPI DUP1 PUSH4 0xC9F66F7F GT PUSH2 0x71 JUMPI DUP1 PUSH4 0xC9F66F7F EQ PUSH2 0x2F0 JUMPI DUP1 PUSH4 0xDCC9E3FC EQ PUSH2 0x310 JUMPI DUP1 PUSH4 0xE9CC2974 EQ PUSH2 0x323 JUMPI DUP1 PUSH4 0xF1435D29 EQ PUSH2 0x336 JUMPI DUP1 PUSH4 0xF645D4F9 EQ PUSH2 0x375 JUMPI PUSH1 0x0 DUP1 REVERT JUMPDEST DUP1 PUSH4 0x623DA3D1 EQ PUSH2 0x20A JUMPI DUP1 PUSH4 0x8F3AE583 EQ PUSH2 0x281 JUMPI DUP1 PUSH4 0xB1620616 EQ PUSH2 0x294 JUMPI DUP1 PUSH4 0xC20267B0 EQ PUSH2 0x2BA JUMPI DUP1 PUSH4 0xC5F7B35A EQ PUSH2 0x2CD JUMPI PUSH1 0x0 DUP1 REVERT JUMPDEST DUP1 PUSH4 0x3AD3D548 GT PUSH2 0xF4 JUMPI DUP1 PUSH4 0x3AD3D548 EQ PUSH2 0x1A8 JUMPI DUP1 PUSH4 0x401A9685 EQ PUSH2 0x1BB JUMPI DUP1 PUSH4 0x40374733 EQ PUSH2 0x1CE JUMPI DUP1 PUSH4 0x40E58EE5 EQ PUSH2 0x1EE JUMPI DUP1 PUSH4 0x5F8D26B2 EQ PUSH2 0x201 JUMPI PUSH1 0x0 DUP1 REVERT JUMPDEST DUP1 PUSH4 0xA248D7F EQ PUSH2 0x131 JUMPI DUP1 PUSH4 0xB7AD54C EQ PUSH2 0x14D JUMPI DUP1 PUSH4 0x21D633D8 EQ PUSH2 0x16D JUMPI DUP1 PUSH4 0x2F57F3F7 EQ PUSH2 0x182 JUMPI DUP1 PUSH4 0x38D7A8FF EQ PUSH2 0x195 JUMPI JUMPDEST PUSH1 0x0 DUP1 REVERT JUMPDEST PUSH2 0x13A PUSH1 0x1 SLOAD DUP2 JUMP JUMPDEST PUSH1 0x40 MLOAD SWAP1 DUP2 MSTORE PUSH1 0x20 ADD JUMPDEST PUSH1 0x40 MLOAD DUP1 SWAP2 SUB SWAP1 RETURN JUMPDEST PUSH2 0x160 PUSH2 0x15B CALLDATASIZE PUSH1 0x4 PUSH2 0x1FA0 JUMP JUMPDEST PUSH2 0x39C JUMP JUMPDEST PUSH1 0x40 MLOAD PUSH2 0x144 SWAP2 SWAP1 PUSH2 0x206C JUMP JUMPDEST PUSH2 0x180 PUSH2 0x17B CALLDATASIZE PUSH1 0x4 PUSH2 0x20E0 JUMP JUMPDEST PUSH2 0x522 JUMP JUMPDEST STOP JUMPDEST PUSH2 0x13A PUSH2 0x190 CALLDATASIZE PUSH1 0x4 PUSH2 0x2177 JUMP JUMPDEST PUSH2 0x620 JUMP JUMPDEST PUSH2 0x180 PUSH2 0x1A3 CALLDATASIZE PUSH1 0x4 PUSH2 0x21FA JUMP JUMPDEST PUSH2 0x88A JUMP JUMPDEST PUSH2 0x13A PUSH2 0x1B6 CALLDATASIZE PUSH1 0x4 PUSH2 0x2233 JUMP JUMPDEST PUSH2 0xCBB JUMP JUMPDEST PUSH2 0x13A PUSH2 0x1C9 CALLDATASIZE PUSH1 0x4 PUSH2 0x22BB JUMP JUMPDEST PUSH2 0xED0 JUMP JUMPDEST PUSH2 0x1E1 PUSH2 0x1DC CALLDATASIZE PUSH1 0x4 PUSH2 0x22E5 JUMP JUMPDEST PUSH2 0xF01 JUMP JUMPDEST PUSH1 0x40 MLOAD PUSH2 0x144 SWAP2 SWAP1 PUSH2 0x2300 JUMP JUMPDEST PUSH2 0x180 PUSH2 0x1FC CALLDATASIZE PUSH1 0x4 PUSH2 0x1FA0 JUMP JUMPDEST PUSH2 0x11B0 JUMP JUMPDEST PUSH2 0x13A PUSH1 0x0 SLOAD DUP2 JUMP JUMPDEST PUSH2 0x257 PUSH2 0x218 CALLDATASIZE PUSH1 0x4 PUSH2 0x22BB JUMP JUMPDEST PUSH1 0x5 PUSH1 0x20 SWAP1 DUP2 MSTORE PUSH1 0x0 SWAP3 DUP4 MSTORE PUSH1 0x40 DUP1 DUP5 KECCAK256 SWAP1 SWAP2 MSTORE SWAP1 DUP3 MSTORE SWAP1 KECCAK256 DUP1 SLOAD PUSH1 0x1 DUP3 ADD SLOAD PUSH1 0x2 DUP4 ADD SLOAD PUSH1 0x3 SWAP1 SWAP4 ADD SLOAD SWAP2 SWAP3 PUSH1 0x1 PUSH1 0x1 PUSH1 0xA0 SHL SUB SWAP1 SWAP2 AND SWAP2 PUSH1 0xFF AND DUP5 JUMP JUMPDEST PUSH1 0x40 DUP1 MLOAD SWAP5 DUP6 MSTORE PUSH1 0x1 PUSH1 0x1 PUSH1 0xA0 SHL SUB SWAP1 SWAP4 AND PUSH1 0x20 DUP6 ADD MSTORE SWAP2 DUP4 ADD MSTORE ISZERO ISZERO PUSH1 0x60 DUP3 ADD MSTORE PUSH1 0x80 ADD PUSH2 0x144 JUMP JUMPDEST PUSH2 0x180 PUSH2 0x28F CALLDATASIZE PUSH1 0x4 PUSH2 0x2362 JUMP JUMPDEST PUSH2 0x126E JUMP JUMPDEST PUSH2 0x2A7 PUSH2 0x2A2 CALLDATASIZE PUSH1 0x4 PUSH2 0x1FA0 JUMP JUMPDEST PUSH2 0x131C JUMP JUMPDEST PUSH1 0x40 MLOAD PUSH2 0x144 SWAP8 SWAP7 SWAP6 SWAP5 SWAP4 SWAP3 SWAP2 SWAP1 PUSH2 0x2392 JUMP JUMPDEST PUSH2 0x180 PUSH2 0x2C8 CALLDATASIZE PUSH1 0x4 PUSH2 0x23EE JUMP JUMPDEST PUSH2 0x1477 JUMP JUMPDEST PUSH2 0x2E0 PUSH2 0x2DB CALLDATASIZE PUSH1 0x4 PUSH2 0x2465 JUMP JUMPDEST PUSH2 0x1713 JUMP JUMPDEST PUSH1 0x40 MLOAD SWAP1 ISZERO ISZERO DUP2 MSTORE PUSH1 0x20 ADD PUSH2 0x144 JUMP JUMPDEST PUSH2 0x303 PUSH2 0x2FE CALLDATASIZE PUSH1 0x4 PUSH2 0x22E5 JUMP JUMPDEST PUSH2 0x183D JUMP JUMPDEST PUSH1 0x40 MLOAD PUSH2 0x144 SWAP2 SWAP1 PUSH2 0x2498 JUMP JUMPDEST PUSH2 0x13A PUSH2 0x31E CALLDATASIZE PUSH1 0x4 PUSH2 0x22BB JUMP JUMPDEST PUSH2 0x1B33 JUMP JUMPDEST PUSH2 0x180 PUSH2 0x331 CALLDATASIZE PUSH1 0x4 PUSH2 0x2562 JUMP JUMPDEST PUSH2 0x1B4F JUMP JUMPDEST PUSH2 0x35D PUSH32 0x0 DUP2 JUMP JUMPDEST PUSH1 0x40 MLOAD PUSH1 0x1 PUSH1 0x1 PUSH1 0xA0 SHL SUB SWAP1 SWAP2 AND DUP2 MSTORE PUSH1 0x20 ADD PUSH2 0x144 JUMP JUMPDEST PUSH2 0x35D PUSH32 0x0 DUP2 JUMP JUMPDEST PUSH2 0x3A4 PUSH2 0x1F5F JUMP JUMPDEST PUSH1 0x0 DUP3 DUP2 MSTORE PUSH1 0x6 PUSH1 0x20 SWAP1 DUP2 MSTORE PUSH1 0x40 SWAP2 DUP3 SWAP1 KECCAK256 DUP3 MLOAD PUSH1 0xC0 DUP2 ADD DUP5 MSTORE DUP2 SLOAD DUP2 MSTORE PUSH1 0x1 DUP3 ADD SLOAD PUSH1 0x1 PUSH1 0x1 PUSH1 0xA0 SHL SUB AND SWAP3 DUP2 ADD SWAP3 SWAP1 SWAP3 MSTORE PUSH1 0x2 DUP2 ADD DUP1 SLOAD SWAP3 SWAP4 SWAP2 SWAP3 SWAP2 DUP5 ADD SWAP2 PUSH2 0x3EE SWAP1 PUSH2 0x2595 JUMP JUMPDEST DUP1 PUSH1 0x1F ADD PUSH1 0x20 DUP1 SWAP2 DIV MUL PUSH1 0x20 ADD PUSH1 0x40 MLOAD SWAP1 DUP2 ADD PUSH1 0x40 MSTORE DUP1 SWAP3 SWAP2 SWAP1 DUP2 DUP2 MSTORE PUSH1 0x20 ADD DUP3 DUP1 SLOAD PUSH2 0x41A SWAP1 PUSH2 0x2595 JUMP JUMPDEST DUP1 ISZERO PUSH2 0x467 JUMPI DUP1 PUSH1 0x1F LT PUSH2 0x43C JUMPI PUSH2 0x100 DUP1 DUP4 SLOAD DIV MUL DUP4 MSTORE SWAP2 PUSH1 0x20 ADD SWAP2 PUSH2 0x467 JUMP JUMPDEST DUP3 ADD SWAP2 SWAP1 PUSH1 0x0 MSTORE PUSH1 0x20 PUSH1 0x0 KECCAK256 SWAP1 JUMPDEST DUP2 SLOAD DUP2 MSTORE SWAP1 PUSH1 0x1 ADD SWAP1 PUSH1 0x20 ADD DUP1 DUP4 GT PUSH2 0x44A JUMPI DUP3 SWAP1 SUB PUSH1 0x1F AND DUP3 ADD SWAP2 JUMPDEST POP POP POP POP POP DUP2 MSTORE PUSH1 0x20 ADD PUSH1 0x3 DUP3 ADD DUP1 SLOAD PUSH2 0x480 SWAP1 PUSH2 0x2595 JUMP JUMPDEST DUP1 PUSH1 0x1F ADD PUSH1 0x20 DUP1 SWAP2 DIV MUL PUSH1 0x20 ADD PUSH1 0x40 MLOAD SWAP1 DUP2 ADD PUSH1 0x40 MSTORE DUP1 SWAP3 SWAP2 SWAP1 DUP2 DUP2 MSTORE PUSH1 0x20 ADD DUP3 DUP1 SLOAD PUSH2 0x4AC SWAP1 PUSH2 0x2595 JUMP JUMPDEST DUP1 ISZERO PUSH2 0x4F9 JUMPI DUP1 PUSH1 0x1F LT PUSH2 0x4CE JUMPI PUSH2 0x100 DUP1 DUP4 SLOAD DIV MUL DUP4 MSTORE SWAP2 PUSH1 0x20 ADD SWAP2 PUSH2 0x4F9 JUMP JUMPDEST DUP3 ADD SWAP2 SWAP1 PUSH1 0x0 MSTORE PUSH1 0x20 PUSH1 0x0 KECCAK256 SWAP1 JUMPDEST DUP2 SLOAD DUP2 MSTORE SWAP1 PUSH1 0x1 ADD SWAP1 PUSH1 0x20 ADD DUP1 DUP4 GT PUSH2 0x4DC JUMPI DUP3 SWAP1 SUB PUSH1 0x1F AND DUP3 ADD SWAP2 JUMPDEST POP POP POP SWAP2 DUP4 MSTORE POP POP PUSH1 0x4 DUP3 ADD SLOAD PUSH1 0x20 DUP3 ADD MSTORE PUSH1 0x5 SWAP1 SWAP2 ADD SLOAD PUSH1 0xFF AND ISZERO ISZERO PUSH1 0x40 SWAP1 SWAP2 ADD MSTORE SWAP3 SWAP2 POP POP JUMP JUMPDEST DUP7 PUSH2 0x52B PUSH2 0x1F1B JUMP JUMPDEST PUSH1 0x0 DUP3 DUP2 MSTORE PUSH1 0x2 PUSH1 0x20 MSTORE PUSH1 0x40 SWAP1 KECCAK256 PUSH1 0x1 ADD SLOAD PUSH1 0x1 PUSH1 0x1 PUSH1 0xA0 SHL SUB SWAP1 DUP2 AND SWAP2 AND EQ PUSH2 0x58A JUMPI PUSH1 0x40 MLOAD PUSH3 0x461BCD PUSH1 0xE5 SHL DUP2 MSTORE PUSH1 0x20 PUSH1 0x4 DUP3 ADD MSTORE PUSH1 0xB PUSH1 0x24 DUP3 ADD MSTORE PUSH11 0x3737BA1031B932B0BA37B9 PUSH1 0xA9 SHL PUSH1 0x44 DUP3 ADD MSTORE PUSH1 0x64 ADD JUMPDEST PUSH1 0x40 MLOAD DUP1 SWAP2 SUB SWAP1 REVERT JUMPDEST PUSH1 0x0 DUP9 DUP2 MSTORE PUSH1 0x2 PUSH1 0x20 DUP2 SWAP1 MSTORE PUSH1 0x40 SWAP1 SWAP2 KECCAK256 SWAP1 DUP2 ADD DUP9 SWAP1 SSTORE PUSH1 0x4 DUP2 ADD PUSH2 0x5B0 DUP8 DUP10 DUP4 PUSH2 0x2634 JUMP JUMPDEST POP PUSH1 0x5 DUP2 ADD PUSH2 0x5C0 DUP6 DUP8 DUP4 PUSH2 0x2634 JUMP JUMPDEST POP PUSH1 0x6 DUP2 ADD DUP1 SLOAD PUSH1 0xFF NOT AND DUP5 ISZERO ISZERO OR SWAP1 SSTORE PUSH1 0x40 MLOAD DUP10 SWAP1 PUSH32 0xBA46C663D468954F8D44E930CCEA7A97979C92200E52FC663C333C07F2A7DE0D SWAP1 PUSH2 0x60D SWAP1 DUP12 SWAP1 DUP12 SWAP1 DUP12 SWAP1 DUP12 SWAP1 DUP12 SWAP1 DUP12 SWAP1 PUSH2 0x271E JUMP JUMPDEST PUSH1 0x40 MLOAD DUP1 SWAP2 SUB SWAP1 LOG2 POP POP POP POP POP POP POP POP POP JUMP JUMPDEST PUSH1 0x0 DUP1 DUP8 GT PUSH2 0x65B JUMPI PUSH1 0x40 MLOAD PUSH3 0x461BCD PUSH1 0xE5 SHL DUP2 MSTORE PUSH1 0x20 PUSH1 0x4 DUP3 ADD MSTORE PUSH1 0x7 PUSH1 0x24 DUP3 ADD MSTORE PUSH7 0x70726963653D3 PUSH1 0xCC SHL PUSH1 0x44 DUP3 ADD MSTORE PUSH1 0x64 ADD PUSH2 0x581 JUMP JUMPDEST PUSH3 0x15180 DUP7 LT ISZERO PUSH2 0x6A1 JUMPI PUSH1 0x40 MLOAD PUSH3 0x461BCD PUSH1 0xE5 SHL DUP2 MSTORE PUSH1 0x20 PUSH1 0x4 DUP3 ADD MSTORE PUSH1 0x10 PUSH1 0x24 DUP3 ADD MSTORE PUSH16 0x1C195C9A5BD9081D1BDBC81CDB585B1B PUSH1 0x82 SHL PUSH1 0x44 DUP3 ADD MSTORE PUSH1 0x64 ADD PUSH2 0x581 JUMP JUMPDEST PUSH1 0x0 DUP1 SLOAD SWAP1 DUP1 PUSH2 0x6B0 DUP4 PUSH2 0x2777 JUMP JUMPDEST SWAP2 SWAP1 POP SSTORE SWAP1 POP PUSH1 0x40 MLOAD DUP1 PUSH1 0xE0 ADD PUSH1 0x40 MSTORE DUP1 DUP3 DUP2 MSTORE PUSH1 0x20 ADD PUSH2 0x6CF PUSH2 0x1F1B JUMP JUMPDEST PUSH1 0x1 PUSH1 0x1 PUSH1 0xA0 SHL SUB AND DUP2 MSTORE PUSH1 0x20 ADD DUP9 DUP2 MSTORE PUSH1 0x20 ADD DUP8 DUP2 MSTORE PUSH1 0x20 ADD DUP7 DUP7 DUP1 DUP1 PUSH1 0x1F ADD PUSH1 0x20 DUP1 SWAP2 DIV MUL PUSH1 0x20 ADD PUSH1 0x40 MLOAD SWAP1 DUP2 ADD PUSH1 0x40 MSTORE DUP1 SWAP4 SWAP3 SWAP2 SWAP1 DUP2 DUP2 MSTORE PUSH1 0x20 ADD DUP4 DUP4 DUP1 DUP3 DUP5 CALLDATACOPY PUSH1 0x0 SWAP3 ADD SWAP2 SWAP1 SWAP2 MSTORE POP POP POP SWAP1 DUP3 MSTORE POP PUSH1 0x40 DUP1 MLOAD PUSH1 0x20 PUSH1 0x1F DUP8 ADD DUP2 SWAP1 DIV DUP2 MUL DUP3 ADD DUP2 ADD SWAP1 SWAP3 MSTORE DUP6 DUP2 MSTORE SWAP2 DUP2 ADD SWAP2 SWAP1 DUP7 SWAP1 DUP7 SWAP1 DUP2 SWAP1 DUP5 ADD DUP4 DUP3 DUP1 DUP3 DUP5 CALLDATACOPY PUSH1 0x0 SWAP3 ADD DUP3 SWAP1 MSTORE POP SWAP4 DUP6 MSTORE POP POP PUSH1 0x1 PUSH1 0x20 SWAP4 DUP5 ADD DUP2 SWAP1 MSTORE DUP6 DUP4 MSTORE PUSH1 0x2 DUP1 DUP6 MSTORE PUSH1 0x40 SWAP4 DUP5 SWAP1 KECCAK256 DUP7 MLOAD DUP2 SSTORE SWAP5 DUP7 ADD MLOAD SWAP2 DUP6 ADD DUP1 SLOAD PUSH1 0x1 PUSH1 0x1 PUSH1 0xA0 SHL SUB NOT AND PUSH1 0x1 PUSH1 0x1 PUSH1 0xA0 SHL SUB SWAP1 SWAP4 AND SWAP3 SWAP1 SWAP3 OR SWAP1 SWAP2 SSTORE SWAP2 DUP5 ADD MLOAD SWAP2 DUP4 ADD SWAP2 SWAP1 SWAP2 SSTORE POP PUSH1 0x60 DUP3 ADD MLOAD PUSH1 0x3 DUP3 ADD SSTORE PUSH1 0x80 DUP3 ADD MLOAD PUSH1 0x4 DUP3 ADD SWAP1 PUSH2 0x7C6 SWAP1 DUP3 PUSH2 0x2790 JUMP JUMPDEST POP PUSH1 0xA0 DUP3 ADD MLOAD PUSH1 0x5 DUP3 ADD SWAP1 PUSH2 0x7DB SWAP1 DUP3 PUSH2 0x2790 JUMP JUMPDEST POP PUSH1 0xC0 SWAP2 SWAP1 SWAP2 ADD MLOAD PUSH1 0x6 SWAP1 SWAP2 ADD DUP1 SLOAD PUSH1 0xFF NOT AND SWAP2 ISZERO ISZERO SWAP2 SWAP1 SWAP2 OR SWAP1 SSTORE PUSH1 0x3 PUSH1 0x0 PUSH2 0x803 PUSH2 0x1F1B JUMP JUMPDEST PUSH1 0x1 PUSH1 0x1 PUSH1 0xA0 SHL SUB AND DUP2 MSTORE PUSH1 0x20 DUP1 DUP3 ADD SWAP3 SWAP1 SWAP3 MSTORE PUSH1 0x40 ADD PUSH1 0x0 SWAP1 DUP2 KECCAK256 DUP1 SLOAD PUSH1 0x1 DUP2 ADD DUP3 SSTORE SWAP1 DUP3 MSTORE SWAP2 SWAP1 KECCAK256 ADD DUP2 SWAP1 SSTORE PUSH2 0x839 PUSH2 0x1F1B JUMP JUMPDEST PUSH1 0x1 PUSH1 0x1 PUSH1 0xA0 SHL SUB AND DUP2 PUSH32 0x9184AA9CB3A12AFCAA9B180C66281AEF283CE89864EDEC70EDC869891754F9FD DUP10 DUP10 DUP10 DUP10 PUSH1 0x40 MLOAD PUSH2 0x878 SWAP5 SWAP4 SWAP3 SWAP2 SWAP1 PUSH2 0x2850 JUMP JUMPDEST PUSH1 0x40 MLOAD DUP1 SWAP2 SUB SWAP1 LOG3 SWAP7 SWAP6 POP POP POP POP POP POP JUMP JUMPDEST PUSH1 0x1 DUP3 LT ISZERO PUSH2 0x8C7 JUMPI PUSH1 0x40 MLOAD PUSH3 0x461BCD PUSH1 0xE5 SHL DUP2 MSTORE PUSH1 0x20 PUSH1 0x4 DUP3 ADD MSTORE PUSH1 0x9 PUSH1 0x24 DUP3 ADD MSTORE PUSH9 0x6D6F6E7468733E3D31 PUSH1 0xB8 SHL PUSH1 0x44 DUP3 ADD MSTORE PUSH1 0x64 ADD PUSH2 0x581 JUMP JUMPDEST PUSH1 0x0 DUP4 DUP2 MSTORE PUSH1 0x2 PUSH1 0x20 DUP2 DUP2 MSTORE PUSH1 0x40 DUP1 DUP5 KECCAK256 DUP2 MLOAD PUSH1 0xE0 DUP2 ADD DUP4 MSTORE DUP2 SLOAD DUP2 MSTORE PUSH1 0x1 DUP3 ADD SLOAD PUSH1 0x1 PUSH1 0x1 PUSH1 0xA0 SHL SUB AND SWAP4 DUP2 ADD SWAP4 SWAP1 SWAP4 MSTORE SWAP3 DUP4 ADD SLOAD SWAP1 DUP3 ADD MSTORE PUSH1 0x3 DUP3 ADD SLOAD PUSH1 0x60 DUP3 ADD MSTORE PUSH1 0x4 DUP3 ADD DUP1 SLOAD SWAP2 SWAP3 SWAP2 PUSH1 0x80 DUP5 ADD SWAP2 SWAP1 PUSH2 0x923 SWAP1 PUSH2 0x2595 JUMP JUMPDEST DUP1 PUSH1 0x1F ADD PUSH1 0x20 DUP1 SWAP2 DIV MUL PUSH1 0x20 ADD PUSH1 0x40 MLOAD SWAP1 DUP2 ADD PUSH1 0x40 MSTORE DUP1 SWAP3 SWAP2 SWAP1 DUP2 DUP2 MSTORE PUSH1 0x20 ADD DUP3 DUP1 SLOAD PUSH2 0x94F SWAP1 PUSH2 0x2595 JUMP JUMPDEST DUP1 ISZERO PUSH2 0x99C JUMPI DUP1 PUSH1 0x1F LT PUSH2 0x971 JUMPI PUSH2 0x100 DUP1 DUP4 SLOAD DIV MUL DUP4 MSTORE SWAP2 PUSH1 0x20 ADD SWAP2 PUSH2 0x99C JUMP JUMPDEST DUP3 ADD SWAP2 SWAP1 PUSH1 0x0 MSTORE PUSH1 0x20 PUSH1 0x0 KECCAK256 SWAP1 JUMPDEST DUP2 SLOAD DUP2 MSTORE SWAP1 PUSH1 0x1 ADD SWAP1 PUSH1 0x20 ADD DUP1 DUP4 GT PUSH2 0x97F JUMPI DUP3 SWAP1 SUB PUSH1 0x1F AND DUP3 ADD SWAP2 JUMPDEST POP POP POP POP POP DUP2 MSTORE PUSH1 0x20 ADD PUSH1 0x5 DUP3 ADD DUP1 SLOAD PUSH2 0x9B5 SWAP1 PUSH2 0x2595 JUMP JUMPDEST DUP1 PUSH1 0x1F ADD PUSH1 0x20 DUP1 SWAP2 DIV MUL PUSH1 0x20 ADD PUSH1 0x40 MLOAD SWAP1 DUP2 ADD PUSH1 0x40 MSTORE DUP1 SWAP3 SWAP2 SWAP1 DUP2 DUP2 MSTORE PUSH1 0x20 ADD DUP3 DUP1 SLOAD PUSH2 0x9E1 SWAP1 PUSH2 0x2595 JUMP JUMPDEST DUP1 ISZERO PUSH2 0xA2E JUMPI DUP1 PUSH1 0x1F LT PUSH2 0xA03 JUMPI PUSH2 0x100 DUP1 DUP4 SLOAD DIV MUL DUP4 MSTORE SWAP2 PUSH1 0x20 ADD SWAP2 PUSH2 0xA2E JUMP JUMPDEST DUP3 ADD SWAP2 SWAP1 PUSH1 0x0 MSTORE PUSH1 0x20 PUSH1 0x0 KECCAK256 SWAP1 JUMPDEST DUP2 SLOAD DUP2 MSTORE SWAP1 PUSH1 0x1 ADD SWAP1 PUSH1 0x20 ADD DUP1 DUP4 GT PUSH2 0xA11 JUMPI DUP3 SWAP1 SUB PUSH1 0x1F AND DUP3 ADD SWAP2 JUMPDEST POP POP POP SWAP2 DUP4 MSTORE POP POP PUSH1 0x6 SWAP2 SWAP1 SWAP2 ADD SLOAD PUSH1 0xFF AND ISZERO ISZERO PUSH1 0x20 SWAP1 SWAP2 ADD MSTORE PUSH1 0xC0 DUP2 ADD MLOAD SWAP1 SWAP2 POP PUSH2 0xA8C JUMPI PUSH1 0x40 MLOAD PUSH3 0x461BCD PUSH1 0xE5 SHL DUP2 MSTORE PUSH1 0x20 PUSH1 0x4 DUP3 ADD MSTORE PUSH1 0xD PUSH1 0x24 DUP3 ADD MSTORE PUSH13 0x34B730B1BA34BB3290383630B7 PUSH1 0x99 SHL PUSH1 0x44 DUP3 ADD MSTORE PUSH1 0x64 ADD PUSH2 0x581 JUMP JUMPDEST PUSH1 0x0 DUP4 DUP3 PUSH1 0x40 ADD MLOAD PUSH2 0xA9E SWAP2 SWAP1 PUSH2 0x287A JUMP JUMPDEST SWAP1 POP PUSH32 0x0 PUSH1 0x1 PUSH1 0x1 PUSH1 0xA0 SHL SUB AND PUSH4 0x23B872DD PUSH2 0xAD7 PUSH2 0x1F1B JUMP JUMPDEST PUSH1 0x20 DUP6 ADD MLOAD PUSH1 0x40 MLOAD PUSH1 0x1 PUSH1 0x1 PUSH1 0xE0 SHL SUB NOT PUSH1 0xE0 DUP6 SWAP1 SHL AND DUP2 MSTORE PUSH1 0x1 PUSH1 0x1 PUSH1 0xA0 SHL SUB SWAP3 DUP4 AND PUSH1 0x4 DUP3 ADD MSTORE SWAP2 AND PUSH1 0x24 DUP3 ADD MSTORE PUSH1 0x44 DUP2 ADD DUP5 SWAP1 MSTORE PUSH1 0x64 ADD PUSH1 0x20 PUSH1 0x40 MLOAD DUP1 DUP4 SUB DUP2 PUSH1 0x0 DUP8 GAS CALL ISZERO DUP1 ISZERO PUSH2 0xB30 JUMPI RETURNDATASIZE PUSH1 0x0 DUP1 RETURNDATACOPY RETURNDATASIZE PUSH1 0x0 REVERT JUMPDEST POP POP POP POP PUSH1 0x40 MLOAD RETURNDATASIZE PUSH1 0x1F NOT PUSH1 0x1F DUP3 ADD AND DUP3 ADD DUP1 PUSH1 0x40 MSTORE POP DUP2 ADD SWAP1 PUSH2 0xB54 SWAP2 SWAP1 PUSH2 0x2891 JUMP JUMPDEST PUSH2 0xB96 JUMPI PUSH1 0x40 MLOAD PUSH3 0x461BCD PUSH1 0xE5 SHL DUP2 MSTORE PUSH1 0x20 PUSH1 0x4 DUP3 ADD MSTORE PUSH1 0x13 PUSH1 0x24 DUP3 ADD MSTORE PUSH19 0x1D1C985B9CD9995C919C9BDB4819985A5B1959 PUSH1 0x6A SHL PUSH1 0x44 DUP3 ADD MSTORE PUSH1 0x64 ADD PUSH2 0x581 JUMP JUMPDEST PUSH1 0x0 PUSH1 0x5 PUSH1 0x0 PUSH2 0xBA4 PUSH2 0x1F1B JUMP JUMPDEST PUSH1 0x1 PUSH1 0x1 PUSH1 0xA0 SHL SUB AND PUSH1 0x1 PUSH1 0x1 PUSH1 0xA0 SHL SUB AND DUP2 MSTORE PUSH1 0x20 ADD SWAP1 DUP2 MSTORE PUSH1 0x20 ADD PUSH1 0x0 KECCAK256 PUSH1 0x0 DUP8 DUP2 MSTORE PUSH1 0x20 ADD SWAP1 DUP2 MSTORE PUSH1 0x20 ADD PUSH1 0x0 KECCAK256 SWAP1 POP PUSH1 0x0 TIMESTAMP DUP3 PUSH1 0x2 ADD SLOAD GT PUSH2 0xBEA JUMPI TIMESTAMP PUSH2 0xBF0 JUMP JUMPDEST DUP2 PUSH1 0x2 ADD SLOAD JUMPDEST DUP8 DUP4 SSTORE SWAP1 POP PUSH2 0xBFD PUSH2 0x1F1B JUMP JUMPDEST PUSH1 0x1 DUP4 ADD DUP1 SLOAD PUSH1 0x1 PUSH1 0x1 PUSH1 0xA0 SHL SUB NOT AND PUSH1 0x1 PUSH1 0x1 PUSH1 0xA0 SHL SUB SWAP3 SWAP1 SWAP3 AND SWAP2 SWAP1 SWAP2 OR SWAP1 SSTORE PUSH1 0x60 DUP5 ADD MLOAD PUSH2 0xC2F SWAP1 DUP8 SWAP1 PUSH2 0x287A JUMP JUMPDEST PUSH2 0xC39 SWAP1 DUP3 PUSH2 0x28AE JUMP JUMPDEST PUSH1 0x2 DUP4 ADD SSTORE PUSH1 0x3 DUP3 ADD DUP1 SLOAD PUSH1 0xFF NOT AND DUP7 ISZERO ISZERO OR SWAP1 SSTORE DUP7 PUSH2 0xC57 PUSH2 0x1F1B JUMP JUMPDEST PUSH1 0x1 PUSH1 0x1 PUSH1 0xA0 SHL SUB AND PUSH32 0x98DCE42F43CEED44F84A429603EC0585F84DD77F9E9AA904AD1B7A9C9C81BC13 DUP9 DUP6 PUSH1 0x2 ADD SLOAD DUP10 PUSH1 0x40 MLOAD PUSH2 0xCAA SWAP4 SWAP3 SWAP2 SWAP1 SWAP3 DUP4 MSTORE PUSH1 0x20 DUP4 ADD SWAP2 SWAP1 SWAP2 MSTORE ISZERO ISZERO PUSH1 0x40 DUP3 ADD MSTORE PUSH1 0x60 ADD SWAP1 JUMP JUMPDEST PUSH1 0x40 MLOAD DUP1 SWAP2 SUB SWAP1 LOG3 POP POP POP POP POP POP POP JUMP JUMPDEST PUSH1 0x0 DUP4 PUSH2 0xCF9 JUMPI PUSH1 0x40 MLOAD PUSH3 0x461BCD PUSH1 0xE5 SHL DUP2 MSTORE PUSH1 0x20 PUSH1 0x4 DUP3 ADD MSTORE PUSH1 0xC PUSH1 0x24 DUP3 ADD MSTORE PUSH12 0x1D5C9A481C995C5D5A5C9959 PUSH1 0xA2 SHL PUSH1 0x44 DUP3 ADD MSTORE PUSH1 0x64 ADD PUSH2 0x581 JUMP JUMPDEST PUSH1 0x1 DUP1 SLOAD SWAP1 PUSH1 0x0 PUSH2 0xD09 DUP4 PUSH2 0x2777 JUMP JUMPDEST SWAP2 SWAP1 POP SSTORE SWAP1 POP PUSH1 0x4 PUSH1 0x0 PUSH2 0xD1B PUSH2 0x1F1B JUMP JUMPDEST PUSH1 0x1 PUSH1 0x1 PUSH1 0xA0 SHL SUB AND DUP2 MSTORE PUSH1 0x20 DUP1 DUP3 ADD SWAP3 SWAP1 SWAP3 MSTORE PUSH1 0x40 SWAP1 DUP2 ADD PUSH1 0x0 SWAP1 DUP2 KECCAK256 DUP1 SLOAD PUSH1 0x1 DUP2 ADD DUP3 SSTORE SWAP1 DUP3 MSTORE SWAP1 DUP4 SWAP1 KECCAK256 ADD DUP4 SWAP1 SSTORE DUP1 MLOAD PUSH1 0xC0 DUP2 ADD SWAP1 SWAP2 MSTORE DUP3 DUP2 MSTORE SWAP1 DUP2 ADD PUSH2 0xD63 PUSH2 0x1F1B JUMP JUMPDEST PUSH1 0x1 PUSH1 0x1 PUSH1 0xA0 SHL SUB AND DUP2 MSTORE PUSH1 0x20 ADD DUP7 DUP7 DUP1 DUP1 PUSH1 0x1F ADD PUSH1 0x20 DUP1 SWAP2 DIV MUL PUSH1 0x20 ADD PUSH1 0x40 MLOAD SWAP1 DUP2 ADD PUSH1 0x40 MSTORE DUP1 SWAP4 SWAP3 SWAP2 SWAP1 DUP2 DUP2 MSTORE PUSH1 0x20 ADD DUP4 DUP4 DUP1 DUP3 DUP5 CALLDATACOPY PUSH1 0x0 SWAP3 ADD SWAP2 SWAP1 SWAP2 MSTORE POP POP POP SWAP1 DUP3 MSTORE POP PUSH1 0x40 DUP1 MLOAD PUSH1 0x20 PUSH1 0x1F DUP8 ADD DUP2 SWAP1 DIV DUP2 MUL DUP3 ADD DUP2 ADD SWAP1 SWAP3 MSTORE DUP6 DUP2 MSTORE SWAP2 DUP2 ADD SWAP2 SWAP1 DUP7 SWAP1 DUP7 SWAP1 DUP2 SWAP1 DUP5 ADD DUP4 DUP3 DUP1 DUP3 DUP5 CALLDATACOPY PUSH1 0x0 SWAP3 ADD DUP3 SWAP1 MSTORE POP SWAP4 DUP6 MSTORE POP POP TIMESTAMP PUSH1 0x20 DUP1 DUP6 ADD SWAP2 SWAP1 SWAP2 MSTORE PUSH1 0x1 PUSH1 0x40 SWAP5 DUP6 ADD DUP2 SWAP1 MSTORE DUP7 DUP5 MSTORE PUSH1 0x6 DUP3 MSTORE SWAP3 DUP5 SWAP1 KECCAK256 DUP6 MLOAD DUP2 SSTORE SWAP1 DUP6 ADD MLOAD SWAP3 DUP2 ADD DUP1 SLOAD PUSH1 0x1 PUSH1 0x1 PUSH1 0xA0 SHL SUB NOT AND PUSH1 0x1 PUSH1 0x1 PUSH1 0xA0 SHL SUB SWAP1 SWAP5 AND SWAP4 SWAP1 SWAP4 OR SWAP1 SWAP3 SSTORE POP SWAP1 DUP3 ADD MLOAD PUSH1 0x2 DUP3 ADD SWAP1 PUSH2 0xE3F SWAP1 DUP3 PUSH2 0x2790 JUMP JUMPDEST POP PUSH1 0x60 DUP3 ADD MLOAD PUSH1 0x3 DUP3 ADD SWAP1 PUSH2 0xE54 SWAP1 DUP3 PUSH2 0x2790 JUMP JUMPDEST POP PUSH1 0x80 DUP3 ADD MLOAD PUSH1 0x4 DUP3 ADD SSTORE PUSH1 0xA0 SWAP1 SWAP2 ADD MLOAD PUSH1 0x5 SWAP1 SWAP2 ADD DUP1 SLOAD PUSH1 0xFF NOT AND SWAP2 ISZERO ISZERO SWAP2 SWAP1 SWAP2 OR SWAP1 SSTORE PUSH2 0xE81 PUSH2 0x1F1B JUMP JUMPDEST PUSH1 0x1 PUSH1 0x1 PUSH1 0xA0 SHL SUB AND DUP2 PUSH32 0x8DAA74A83F2EB8D1EF28B9EFAD4412C0AFCE7CB2DEEEA7E197C4B1E3D4BC5C54 DUP8 DUP8 DUP8 DUP8 PUSH1 0x40 MLOAD PUSH2 0xEC0 SWAP5 SWAP4 SWAP3 SWAP2 SWAP1 PUSH2 0x28C1 JUMP JUMPDEST PUSH1 0x40 MLOAD DUP1 SWAP2 SUB SWAP1 LOG3 SWAP5 SWAP4 POP POP POP POP JUMP JUMPDEST PUSH1 0x4 PUSH1 0x20 MSTORE DUP2 PUSH1 0x0 MSTORE PUSH1 0x40 PUSH1 0x0 KECCAK256 DUP2 DUP2 SLOAD DUP2 LT PUSH2 0xEEC JUMPI PUSH1 0x0 DUP1 REVERT JUMPDEST SWAP1 PUSH1 0x0 MSTORE PUSH1 0x20 PUSH1 0x0 KECCAK256 ADD PUSH1 0x0 SWAP2 POP SWAP2 POP POP SLOAD DUP2 JUMP JUMPDEST PUSH1 0x1 PUSH1 0x1 PUSH1 0xA0 SHL SUB DUP2 AND PUSH1 0x0 SWAP1 DUP2 MSTORE PUSH1 0x4 PUSH1 0x20 SWAP1 DUP2 MSTORE PUSH1 0x40 DUP1 DUP4 KECCAK256 DUP1 SLOAD DUP3 MLOAD DUP2 DUP6 MUL DUP2 ADD DUP6 ADD SWAP1 SWAP4 MSTORE DUP1 DUP4 MSTORE PUSH1 0x60 SWAP5 SWAP4 DUP4 ADD DUP3 DUP3 DUP1 ISZERO PUSH2 0xF60 JUMPI PUSH1 0x20 MUL DUP3 ADD SWAP2 SWAP1 PUSH1 0x0 MSTORE PUSH1 0x20 PUSH1 0x0 KECCAK256 SWAP1 JUMPDEST DUP2 SLOAD DUP2 MSTORE PUSH1 0x20 ADD SWAP1 PUSH1 0x1 ADD SWAP1 DUP1 DUP4 GT PUSH2 0xF4C JUMPI JUMPDEST POP POP POP POP POP SWAP1 POP DUP1 MLOAD PUSH8 0xFFFFFFFFFFFFFFFF DUP2 GT ISZERO PUSH2 0xF81 JUMPI PUSH2 0xF81 PUSH2 0x25CF JUMP JUMPDEST PUSH1 0x40 MLOAD SWAP1 DUP1 DUP3 MSTORE DUP1 PUSH1 0x20 MUL PUSH1 0x20 ADD DUP3 ADD PUSH1 0x40 MSTORE DUP1 ISZERO PUSH2 0xFBA JUMPI DUP2 PUSH1 0x20 ADD JUMPDEST PUSH2 0xFA7 PUSH2 0x1F5F JUMP JUMPDEST DUP2 MSTORE PUSH1 0x20 ADD SWAP1 PUSH1 0x1 SWAP1 SUB SWAP1 DUP2 PUSH2 0xF9F JUMPI SWAP1 POP JUMPDEST POP SWAP2 POP PUSH1 0x0 JUMPDEST DUP2 MLOAD DUP2 LT ISZERO PUSH2 0x11A9 JUMPI PUSH1 0x6 PUSH1 0x0 DUP4 DUP4 DUP2 MLOAD DUP2 LT PUSH2 0xFDF JUMPI PUSH2 0xFDF PUSH2 0x28F3 JUMP JUMPDEST PUSH1 0x20 MUL PUSH1 0x20 ADD ADD MLOAD DUP2 MSTORE PUSH1 0x20 ADD SWAP1 DUP2 MSTORE PUSH1 0x20 ADD PUSH1 0x0 KECCAK256 PUSH1 0x40 MLOAD DUP1 PUSH1 0xC0 ADD PUSH1 0x40 MSTORE SWAP1 DUP2 PUSH1 0x0 DUP3 ADD SLOAD DUP2 MSTORE PUSH1 0x20 ADD PUSH1 0x1 DUP3 ADD PUSH1 0x0 SWAP1 SLOAD SWAP1 PUSH2 0x100 EXP SWAP1 DIV PUSH1 0x1 PUSH1 0x1 PUSH1 0xA0 SHL SUB AND PUSH1 0x1 PUSH1 0x1 PUSH1 0xA0 SHL SUB AND PUSH1 0x1 PUSH1 0x1 PUSH1 0xA0 SHL SUB AND DUP2 MSTORE PUSH1 0x20 ADD PUSH1 0x2 DUP3 ADD DUP1 SLOAD PUSH2 0x1049 SWAP1 PUSH2 0x2595 JUMP JUMPDEST DUP1 PUSH1 0x1F ADD PUSH1 0x20 DUP1 SWAP2 DIV MUL PUSH1 0x20 ADD PUSH1 0x40 MLOAD SWAP1 DUP2 ADD PUSH1 0x40 MSTORE DUP1 SWAP3 SWAP2 SWAP1 DUP2 DUP2 MSTORE PUSH1 0x20 ADD DUP3 DUP1 SLOAD PUSH2 0x1075 SWAP1 PUSH2 0x2595 JUMP JUMPDEST DUP1 ISZERO PUSH2 0x10C2 JUMPI DUP1 PUSH1 0x1F LT PUSH2 0x1097 JUMPI PUSH2 0x100 DUP1 DUP4 SLOAD DIV MUL DUP4 MSTORE SWAP2 PUSH1 0x20 ADD SWAP2 PUSH2 0x10C2 JUMP JUMPDEST DUP3 ADD SWAP2 SWAP1 PUSH1 0x0 MSTORE PUSH1 0x20 PUSH1 0x0 KECCAK256 SWAP1 JUMPDEST DUP2 SLOAD DUP2 MSTORE SWAP1 PUSH1 0x1 ADD SWAP1 PUSH1 0x20 ADD DUP1 DUP4 GT PUSH2 0x10A5 JUMPI DUP3 SWAP1 SUB PUSH1 0x1F AND DUP3 ADD SWAP2 JUMPDEST POP POP POP POP POP DUP2 MSTORE PUSH1 0x20 ADD PUSH1 0x3 DUP3 ADD DUP1 SLOAD PUSH2 0x10DB SWAP1 PUSH2 0x2595 JUMP JUMPDEST DUP1 PUSH1 0x1F ADD PUSH1 0x20 DUP1 SWAP2 DIV MUL PUSH1 0x20 ADD PUSH1 0x40 MLOAD SWAP1 DUP2 ADD PUSH1 0x40 MSTORE DUP1 SWAP3 SWAP2 SWAP1 DUP2 DUP2 MSTORE PUSH1 0x20 ADD DUP3 DUP1 SLOAD PUSH2 0x1107 SWAP1 PUSH2 0x2595 JUMP JUMPDEST DUP1 ISZERO PUSH2 0x1154 JUMPI DUP1 PUSH1 0x1F LT PUSH2 0x1129 JUMPI PUSH2 0x100 DUP1 DUP4 SLOAD DIV MUL DUP4 MSTORE SWAP2 PUSH1 0x20 ADD SWAP2 PUSH2 0x1154 JUMP JUMPDEST DUP3 ADD SWAP2 SWAP1 PUSH1 0x0 MSTORE PUSH1 0x20 PUSH1 0x0 KECCAK256 SWAP1 JUMPDEST DUP2 SLOAD DUP2 MSTORE SWAP1 PUSH1 0x1 ADD SWAP1 PUSH1 0x20 ADD DUP1 DUP4 GT PUSH2 0x1137 JUMPI DUP3 SWAP1 SUB PUSH1 0x1F AND DUP3 ADD SWAP2 JUMPDEST POP POP POP SWAP2 DUP4 MSTORE POP POP PUSH1 0x4 DUP3 ADD SLOAD PUSH1 0x20 DUP3 ADD MSTORE PUSH1 0x5 SWAP1 SWAP2 ADD SLOAD PUSH1 0xFF AND ISZERO ISZERO PUSH1 0x40 SWAP1 SWAP2 ADD MSTORE DUP4 MLOAD DUP5 SWAP1 DUP4 SWAP1 DUP2 LT PUSH2 0x118B JUMPI PUSH2 0x118B PUSH2 0x28F3 JUMP JUMPDEST PUSH1 0x20 MUL PUSH1 0x20 ADD ADD DUP2 SWAP1 MSTORE POP DUP1 DUP1 PUSH2 0x11A1 SWAP1 PUSH2 0x2777 JUMP JUMPDEST SWAP2 POP POP PUSH2 0xFC0 JUMP JUMPDEST POP POP SWAP2 SWAP1 POP JUMP JUMPDEST PUSH1 0x0 PUSH1 0x5 PUSH1 0x0 PUSH2 0x11BE PUSH2 0x1F1B JUMP JUMPDEST PUSH1 0x1 PUSH1 0x1 PUSH1 0xA0 SHL SUB AND DUP2 MSTORE PUSH1 0x20 DUP1 DUP3 ADD SWAP3 SWAP1 SWAP3 MSTORE PUSH1 0x40 SWAP1 DUP2 ADD PUSH1 0x0 SWAP1 DUP2 KECCAK256 DUP6 DUP3 MSTORE SWAP1 SWAP3 MSTORE SWAP1 KECCAK256 DUP1 SLOAD SWAP1 SWAP2 POP DUP3 EQ PUSH2 0x1220 JUMPI PUSH1 0x40 MLOAD PUSH3 0x461BCD PUSH1 0xE5 SHL DUP2 MSTORE PUSH1 0x20 PUSH1 0x4 DUP3 ADD MSTORE PUSH1 0x6 PUSH1 0x24 DUP3 ADD MSTORE PUSH6 0x37379039BAB1 PUSH1 0xD1 SHL PUSH1 0x44 DUP3 ADD MSTORE PUSH1 0x64 ADD PUSH2 0x581 JUMP JUMPDEST PUSH1 0x3 DUP2 ADD DUP1 SLOAD PUSH1 0xFF NOT AND SWAP1 SSTORE DUP2 PUSH2 0x1235 PUSH2 0x1F1B JUMP JUMPDEST PUSH1 0x1 PUSH1 0x1 PUSH1 0xA0 SHL SUB AND PUSH32 0x36EA5CD5608625E789AF0282EECDB4EAE1CB7C1CF6D0EC3F9A84F35BE850260B PUSH1 0x40 MLOAD PUSH1 0x40 MLOAD DUP1 SWAP2 SUB SWAP1 LOG3 POP POP JUMP JUMPDEST PUSH1 0x0 DUP3 DUP2 MSTORE PUSH1 0x6 PUSH1 0x20 MSTORE PUSH1 0x40 SWAP1 KECCAK256 PUSH2 0x1284 PUSH2 0x1F1B JUMP JUMPDEST PUSH1 0x1 DUP3 ADD SLOAD PUSH1 0x1 PUSH1 0x1 PUSH1 0xA0 SHL SUB SWAP1 DUP2 AND SWAP2 AND EQ PUSH2 0x12CF JUMPI PUSH1 0x40 MLOAD PUSH3 0x461BCD PUSH1 0xE5 SHL DUP2 MSTORE PUSH1 0x20 PUSH1 0x4 DUP3 ADD MSTORE PUSH1 0x9 PUSH1 0x24 DUP3 ADD MSTORE PUSH9 0x3737BA1037BBB732B9 PUSH1 0xB9 SHL PUSH1 0x44 DUP3 ADD MSTORE PUSH1 0x64 ADD PUSH2 0x581 JUMP JUMPDEST PUSH1 0x5 DUP2 ADD DUP1 SLOAD PUSH1 0xFF NOT AND DUP4 ISZERO ISZERO SWAP1 DUP2 OR SWAP1 SWAP2 SSTORE PUSH1 0x40 MLOAD SWAP1 DUP2 MSTORE DUP4 SWAP1 PUSH32 0x8E967A27B78A41EF542AE8605776D411C12E7033F60EB40BE0D4066FF41991F2 SWAP1 PUSH1 0x20 ADD PUSH1 0x40 MLOAD DUP1 SWAP2 SUB SWAP1 LOG2 POP POP POP JUMP JUMPDEST PUSH1 0x2 PUSH1 0x20 DUP2 SWAP1 MSTORE PUSH1 0x0 SWAP2 DUP3 MSTORE PUSH1 0x40 SWAP1 SWAP2 KECCAK256 DUP1 SLOAD PUSH1 0x1 DUP3 ADD SLOAD SWAP3 DUP3 ADD SLOAD PUSH1 0x3 DUP4 ADD SLOAD PUSH1 0x4 DUP5 ADD DUP1 SLOAD SWAP4 SWAP6 PUSH1 0x1 PUSH1 0x1 PUSH1 0xA0 SHL SUB AND SWAP5 SWAP3 SWAP4 SWAP2 SWAP3 SWAP2 PUSH2 0x135D SWAP1 PUSH2 0x2595 JUMP JUMPDEST DUP1 PUSH1 0x1F ADD PUSH1 0x20 DUP1 SWAP2 DIV MUL PUSH1 0x20 ADD PUSH1 0x40 MLOAD SWAP1 DUP2 ADD PUSH1 0x40 MSTORE DUP1 SWAP3 SWAP2 SWAP1 DUP2 DUP2 MSTORE PUSH1 0x20 ADD DUP3 DUP1 SLOAD PUSH2 0x1389 SWAP1 PUSH2 0x2595 JUMP JUMPDEST DUP1 ISZERO PUSH2 0x13D6 JUMPI DUP1 PUSH1 0x1F LT PUSH2 0x13AB JUMPI PUSH2 0x100 DUP1 DUP4 SLOAD DIV MUL DUP4 MSTORE SWAP2 PUSH1 0x20 ADD SWAP2 PUSH2 0x13D6 JUMP JUMPDEST DUP3 ADD SWAP2 SWAP1 PUSH1 0x0 MSTORE PUSH1 0x20 PUSH1 0x0 KECCAK256 SWAP1 JUMPDEST DUP2 SLOAD DUP2 MSTORE SWAP1 PUSH1 0x1 ADD SWAP1 PUSH1 0x20 ADD DUP1 DUP4 GT PUSH2 0x13B9 JUMPI DUP3 SWAP1 SUB PUSH1 0x1F AND DUP3 ADD SWAP2 JUMPDEST POP POP POP POP POP SWAP1 DUP1 PUSH1 0x5 ADD DUP1 SLOAD PUSH2 0x13EB SWAP1 PUSH2 0x2595 JUMP JUMPDEST DUP1 PUSH1 0x1F ADD PUSH1 0x20 DUP1 SWAP2 DIV MUL PUSH1 0x20 ADD PUSH1 0x40 MLOAD SWAP1 DUP2 ADD PUSH1 0x40 MSTORE DUP1 SWAP3 SWAP2 SWAP1 DUP2 DUP2 MSTORE PUSH1 0x20 ADD DUP3 DUP1 SLOAD PUSH2 0x1417 SWAP1 PUSH2 0x2595 JUMP JUMPDEST DUP1 ISZERO PUSH2 0x1464 JUMPI DUP1 PUSH1 0x1F LT PUSH2 0x1439 JUMPI PUSH2 0x100 DUP1 DUP4 SLOAD DIV MUL DUP4 MSTORE SWAP2 PUSH1 0x20 ADD SWAP2 PUSH2 0x1464 JUMP JUMPDEST DUP3 ADD SWAP2 SWAP1 PUSH1 0x0 MSTORE PUSH1 0x20 PUSH1 0x0 KECCAK256 SWAP1 JUMPDEST DUP2 SLOAD DUP2 MSTORE SWAP1 PUSH1 0x1 ADD SWAP1 PUSH1 0x20 ADD DUP1 DUP4 GT PUSH2 0x1447 JUMPI DUP3 SWAP1 SUB PUSH1 0x1F AND DUP3 ADD SWAP2 JUMPDEST POP POP POP PUSH1 0x6 SWAP1 SWAP4 ADD SLOAD SWAP2 SWAP3 POP POP PUSH1 0xFF AND DUP8 JUMP JUMPDEST PUSH1 0x0 DUP9 DUP2 MSTORE PUSH1 0x2 PUSH1 0x20 DUP2 DUP2 MSTORE PUSH1 0x40 DUP1 DUP5 KECCAK256 DUP2 MLOAD PUSH1 0xE0 DUP2 ADD DUP4 MSTORE DUP2 SLOAD DUP2 MSTORE PUSH1 0x1 DUP3 ADD SLOAD PUSH1 0x1 PUSH1 0x1 PUSH1 0xA0 SHL SUB AND SWAP4 DUP2 ADD SWAP4 SWAP1 SWAP4 MSTORE SWAP3 DUP4 ADD SLOAD SWAP1 DUP3 ADD MSTORE PUSH1 0x3 DUP3 ADD SLOAD PUSH1 0x60 DUP3 ADD MSTORE PUSH1 0x4 DUP3 ADD DUP1 SLOAD SWAP2 SWAP3 SWAP2 PUSH1 0x80 DUP5 ADD SWAP2 SWAP1 PUSH2 0x14D3 SWAP1 PUSH2 0x2595 JUMP JUMPDEST DUP1 PUSH1 0x1F ADD PUSH1 0x20 DUP1 SWAP2 DIV MUL PUSH1 0x20 ADD PUSH1 0x40 MLOAD SWAP1 DUP2 ADD PUSH1 0x40 MSTORE DUP1 SWAP3 SWAP2 SWAP1 DUP2 DUP2 MSTORE PUSH1 0x20 ADD DUP3 DUP1 SLOAD PUSH2 0x14FF SWAP1 PUSH2 0x2595 JUMP JUMPDEST DUP1 ISZERO PUSH2 0x154C JUMPI DUP1 PUSH1 0x1F LT PUSH2 0x1521 JUMPI PUSH2 0x100 DUP1 DUP4 SLOAD DIV MUL DUP4 MSTORE SWAP2 PUSH1 0x20 ADD SWAP2 PUSH2 0x154C JUMP JUMPDEST DUP3 ADD SWAP2 SWAP1 PUSH1 0x0 MSTORE PUSH1 0x20 PUSH1 0x0 KECCAK256 SWAP1 JUMPDEST DUP2 SLOAD DUP2 MSTORE SWAP1 PUSH1 0x1 ADD SWAP1 PUSH1 0x20 ADD DUP1 DUP4 GT PUSH2 0x152F JUMPI DUP3 SWAP1 SUB PUSH1 0x1F AND DUP3 ADD SWAP2 JUMPDEST POP POP POP POP POP DUP2 MSTORE PUSH1 0x20 ADD PUSH1 0x5 DUP3 ADD DUP1 SLOAD PUSH2 0x1565 SWAP1 PUSH2 0x2595 JUMP JUMPDEST DUP1 PUSH1 0x1F ADD PUSH1 0x20 DUP1 SWAP2 DIV MUL PUSH1 0x20 ADD PUSH1 0x40 MLOAD SWAP1 DUP2 ADD PUSH1 0x40 MSTORE DUP1 SWAP3 SWAP2 SWAP1 DUP2 DUP2 MSTORE PUSH1 0x20 ADD DUP3 DUP1 SLOAD PUSH2 0x1591 SWAP1 PUSH2 0x2595 JUMP JUMPDEST DUP1 ISZERO PUSH2 0x15DE JUMPI DUP1 PUSH1 0x1F LT PUSH2 0x15B3 JUMPI PUSH2 0x100 DUP1 DUP4 SLOAD DIV MUL DUP4 MSTORE SWAP2 PUSH1 0x20 ADD SWAP2 PUSH2 0x15DE JUMP JUMPDEST DUP3 ADD SWAP2 SWAP1 PUSH1 0x0 MSTORE PUSH1 0x20 PUSH1 0x0 KECCAK256 SWAP1 JUMPDEST DUP2 SLOAD DUP2 MSTORE SWAP1 PUSH1 0x1 ADD SWAP1 PUSH1 0x20 ADD DUP1 DUP4 GT PUSH2 0x15C1 JUMPI DUP3 SWAP1 SUB PUSH1 0x1F AND DUP3 ADD SWAP2 JUMPDEST POP POP POP SWAP2 DUP4 MSTORE POP POP PUSH1 0x6 SWAP2 SWAP1 SWAP2 ADD SLOAD PUSH1 0xFF AND ISZERO ISZERO PUSH1 0x20 SWAP1 SWAP2 ADD MSTORE PUSH1 0xC0 DUP2 ADD MLOAD SWAP1 SWAP2 POP PUSH2 0x163C JUMPI PUSH1 0x40 MLOAD PUSH3 0x461BCD PUSH1 0xE5 SHL DUP2 MSTORE PUSH1 0x20 PUSH1 0x4 DUP3 ADD MSTORE PUSH1 0xD PUSH1 0x24 DUP3 ADD MSTORE PUSH13 0x34B730B1BA34BB3290383630B7 PUSH1 0x99 SHL PUSH1 0x44 DUP3 ADD MSTORE PUSH1 0x64 ADD PUSH2 0x581 JUMP JUMPDEST PUSH32 0x0 PUSH1 0x1 PUSH1 0x1 PUSH1 0xA0 SHL SUB AND PUSH4 0xD505ACCF PUSH2 0x1673 PUSH2 0x1F1B JUMP JUMPDEST PUSH1 0x20 DUP5 ADD MLOAD PUSH1 0x40 MLOAD PUSH1 0x1 PUSH1 0x1 PUSH1 0xE0 SHL SUB NOT PUSH1 0xE0 DUP6 SWAP1 SHL AND DUP2 MSTORE PUSH1 0x1 PUSH1 0x1 PUSH1 0xA0 SHL SUB SWAP3 DUP4 AND PUSH1 0x4 DUP3 ADD MSTORE SWAP2 AND PUSH1 0x24 DUP3 ADD MSTORE PUSH1 0x44 DUP2 ADD DUP10 SWAP1 MSTORE PUSH1 0x64 DUP2 ADD DUP9 SWAP1 MSTORE PUSH1 0xFF DUP8 AND PUSH1 0x84 DUP3 ADD MSTORE PUSH1 0xA4 DUP2 ADD DUP7 SWAP1 MSTORE PUSH1 0xC4 DUP2 ADD DUP6 SWAP1 MSTORE PUSH1 0xE4 ADD PUSH1 0x0 PUSH1 0x40 MLOAD DUP1 DUP4 SUB DUP2 PUSH1 0x0 DUP8 DUP1 EXTCODESIZE ISZERO DUP1 ISZERO PUSH2 0x16E5 JUMPI PUSH1 0x0 DUP1 REVERT JUMPDEST POP GAS CALL ISZERO DUP1 ISZERO PUSH2 0x16F9 JUMPI RETURNDATASIZE PUSH1 0x0 DUP1 RETURNDATACOPY RETURNDATASIZE PUSH1 0x0 REVERT JUMPDEST POP POP POP POP PUSH2 0x1708 DUP10 DUP10 DUP10 PUSH2 0x88A JUMP JUMPDEST POP POP POP POP POP POP POP POP POP JUMP JUMPDEST PUSH1 0x1 PUSH1 0x1 PUSH1 0xA0 SHL SUB DUP3 AND PUSH1 0x0 SWAP1 DUP2 MSTORE PUSH1 0x3 PUSH1 0x20 SWAP1 DUP2 MSTORE PUSH1 0x40 DUP1 DUP4 KECCAK256 DUP1 SLOAD DUP3 MLOAD DUP2 DUP6 MUL DUP2 ADD DUP6 ADD SWAP1 SWAP4 MSTORE DUP1 DUP4 MSTORE DUP5 SWAP4 DUP4 ADD DUP3 DUP3 DUP1 ISZERO PUSH2 0x1770 JUMPI PUSH1 0x20 MUL DUP3 ADD SWAP2 SWAP1 PUSH1 0x0 MSTORE PUSH1 0x20 PUSH1 0x0 KECCAK256 SWAP1 JUMPDEST DUP2 SLOAD DUP2 MSTORE PUSH1 0x20 ADD SWAP1 PUSH1 0x1 ADD SWAP1 DUP1 DUP4 GT PUSH2 0x175C JUMPI JUMPDEST POP POP POP POP POP SWAP1 POP PUSH1 0x0 JUMPDEST DUP2 MLOAD DUP2 LT ISZERO PUSH2 0x1830 JUMPI PUSH1 0x1 PUSH1 0x1 PUSH1 0xA0 SHL SUB DUP5 AND PUSH1 0x0 SWAP1 DUP2 MSTORE PUSH1 0x5 PUSH1 0x20 MSTORE PUSH1 0x40 DUP2 KECCAK256 DUP4 MLOAD DUP3 SWAP1 DUP6 SWAP1 DUP6 SWAP1 DUP2 LT PUSH2 0x17B1 JUMPI PUSH2 0x17B1 PUSH2 0x28F3 JUMP JUMPDEST PUSH1 0x20 SWAP1 DUP2 MUL SWAP2 SWAP1 SWAP2 ADD DUP2 ADD MLOAD DUP3 MSTORE DUP2 DUP2 ADD SWAP3 SWAP1 SWAP3 MSTORE PUSH1 0x40 SWAP1 DUP2 ADD PUSH1 0x0 KECCAK256 DUP2 MLOAD PUSH1 0x80 DUP2 ADD DUP4 MSTORE DUP2 SLOAD DUP2 MSTORE PUSH1 0x1 DUP3 ADD SLOAD PUSH1 0x1 PUSH1 0x1 PUSH1 0xA0 SHL SUB AND SWAP4 DUP2 ADD SWAP4 SWAP1 SWAP4 MSTORE PUSH1 0x2 DUP2 ADD SLOAD SWAP2 DUP4 ADD DUP3 SWAP1 MSTORE PUSH1 0x3 ADD SLOAD PUSH1 0xFF AND ISZERO ISZERO PUSH1 0x60 DUP4 ADD MSTORE SWAP1 SWAP2 POP TIMESTAMP GT PUSH2 0x181D JUMPI PUSH1 0x1 SWAP4 POP POP POP POP PUSH2 0x1837 JUMP JUMPDEST POP DUP1 PUSH2 0x1828 DUP2 PUSH2 0x2777 JUMP JUMPDEST SWAP2 POP POP PUSH2 0x177A JUMP JUMPDEST POP PUSH1 0x0 SWAP2 POP POP JUMPDEST SWAP3 SWAP2 POP POP JUMP JUMPDEST PUSH1 0x1 PUSH1 0x1 PUSH1 0xA0 SHL SUB DUP2 AND PUSH1 0x0 SWAP1 DUP2 MSTORE PUSH1 0x3 PUSH1 0x20 SWAP1 DUP2 MSTORE PUSH1 0x40 DUP1 DUP4 KECCAK256 DUP1 SLOAD DUP3 MLOAD DUP2 DUP6 MUL DUP2 ADD DUP6 ADD SWAP1 SWAP4 MSTORE DUP1 DUP4 MSTORE PUSH1 0x60 SWAP5 SWAP4 DUP4 ADD DUP3 DUP3 DUP1 ISZERO PUSH2 0x189C JUMPI PUSH1 0x20 MUL DUP3 ADD SWAP2 SWAP1 PUSH1 0x0 MSTORE PUSH1 0x20 PUSH1 0x0 KECCAK256 SWAP1 JUMPDEST DUP2 SLOAD DUP2 MSTORE PUSH1 0x20 ADD SWAP1 PUSH1 0x1 ADD SWAP1 DUP1 DUP4 GT PUSH2 0x1888 JUMPI JUMPDEST POP POP POP POP POP SWAP1 POP DUP1 MLOAD PUSH8 0xFFFFFFFFFFFFFFFF DUP2 GT ISZERO PUSH2 0x18BD JUMPI PUSH2 0x18BD PUSH2 0x25CF JUMP JUMPDEST PUSH1 0x40 MLOAD SWAP1 DUP1 DUP3 MSTORE DUP1 PUSH1 0x20 MUL PUSH1 0x20 ADD DUP3 ADD PUSH1 0x40 MSTORE DUP1 ISZERO PUSH2 0x1939 JUMPI DUP2 PUSH1 0x20 ADD JUMPDEST PUSH2 0x1926 PUSH1 0x40 MLOAD DUP1 PUSH1 0xE0 ADD PUSH1 0x40 MSTORE DUP1 PUSH1 0x0 DUP2 MSTORE PUSH1 0x20 ADD PUSH1 0x0 PUSH1 0x1 PUSH1 0x1 PUSH1 0xA0 SHL SUB AND DUP2 MSTORE PUSH1 0x20 ADD PUSH1 0x0 DUP2 MSTORE PUSH1 0x20 ADD PUSH1 0x0 DUP2 MSTORE PUSH1 0x20 ADD PUSH1 0x60 DUP2 MSTORE PUSH1 0x20 ADD PUSH1 0x60 DUP2 MSTORE PUSH1 0x20 ADD PUSH1 0x0 ISZERO ISZERO DUP2 MSTORE POP SWAP1 JUMP JUMPDEST DUP2 MSTORE PUSH1 0x20 ADD SWAP1 PUSH1 0x1 SWAP1 SUB SWAP1 DUP2 PUSH2 0x18DB JUMPI SWAP1 POP JUMPDEST POP SWAP2 POP PUSH1 0x0 JUMPDEST DUP2 MLOAD DUP2 LT ISZERO PUSH2 0x11A9 JUMPI PUSH1 0x2 PUSH1 0x0 DUP4 DUP4 DUP2 MLOAD DUP2 LT PUSH2 0x195E JUMPI PUSH2 0x195E PUSH2 0x28F3 JUMP JUMPDEST PUSH1 0x20 MUL PUSH1 0x20 ADD ADD MLOAD DUP2 MSTORE PUSH1 0x20 ADD SWAP1 DUP2 MSTORE PUSH1 0x20 ADD PUSH1 0x0 KECCAK256 PUSH1 0x40 MLOAD DUP1 PUSH1 0xE0 ADD PUSH1 0x40 MSTORE SWAP1 DUP2 PUSH1 0x0 DUP3 ADD SLOAD DUP2 MSTORE PUSH1 0x20 ADD PUSH1 0x1 DUP3 ADD PUSH1 0x0 SWAP1 SLOAD SWAP1 PUSH2 0x100 EXP SWAP1 DIV PUSH1 0x1 PUSH1 0x1 PUSH1 0xA0 SHL SUB AND PUSH1 0x1 PUSH1 0x1 PUSH1 0xA0 SHL SUB AND PUSH1 0x1 PUSH1 0x1 PUSH1 0xA0 SHL SUB AND DUP2 MSTORE PUSH1 0x20 ADD PUSH1 0x2 DUP3 ADD SLOAD DUP2 MSTORE PUSH1 0x20 ADD PUSH1 0x3 DUP3 ADD SLOAD DUP2 MSTORE PUSH1 0x20 ADD PUSH1 0x4 DUP3 ADD DUP1 SLOAD PUSH2 0x19DC SWAP1 PUSH2 0x2595 JUMP JUMPDEST DUP1 PUSH1 0x1F ADD PUSH1 0x20 DUP1 SWAP2 DIV MUL PUSH1 0x20 ADD PUSH1 0x40 MLOAD SWAP1 DUP2 ADD PUSH1 0x40 MSTORE DUP1 SWAP3 SWAP2 SWAP1 DUP2 DUP2 MSTORE PUSH1 0x20 ADD DUP3 DUP1 SLOAD PUSH2 0x1A08 SWAP1 PUSH2 0x2595 JUMP JUMPDEST DUP1 ISZERO PUSH2 0x1A55 JUMPI DUP1 PUSH1 0x1F LT PUSH2 0x1A2A JUMPI PUSH2 0x100 DUP1 DUP4 SLOAD DIV MUL DUP4 MSTORE SWAP2 PUSH1 0x20 ADD SWAP2 PUSH2 0x1A55 JUMP JUMPDEST DUP3 ADD SWAP2 SWAP1 PUSH1 0x0 MSTORE PUSH1 0x20 PUSH1 0x0 KECCAK256 SWAP1 JUMPDEST DUP2 SLOAD DUP2 MSTORE SWAP1 PUSH1 0x1 ADD SWAP1 PUSH1 0x20 ADD DUP1 DUP4 GT PUSH2 0x1A38 JUMPI DUP3 SWAP1 SUB PUSH1 0x1F AND DUP3 ADD SWAP2 JUMPDEST POP POP POP POP POP DUP2 MSTORE PUSH1 0x20 ADD PUSH1 0x5 DUP3 ADD DUP1 SLOAD PUSH2 0x1A6E SWAP1 PUSH2 0x2595 JUMP JUMPDEST DUP1 PUSH1 0x1F ADD PUSH1 0x20 DUP1 SWAP2 DIV MUL PUSH1 0x20 ADD PUSH1 0x40 MLOAD SWAP1 DUP2 ADD PUSH1 0x40 MSTORE DUP1 SWAP3 SWAP2 SWAP1 DUP2 DUP2 MSTORE PUSH1 0x20 ADD DUP3 DUP1 SLOAD PUSH2 0x1A9A SWAP1 PUSH2 0x2595 JUMP JUMPDEST DUP1 ISZERO PUSH2 0x1AE7 JUMPI DUP1 PUSH1 0x1F LT PUSH2 0x1ABC JUMPI PUSH2 0x100 DUP1 DUP4 SLOAD DIV MUL DUP4 MSTORE SWAP2 PUSH1 0x20 ADD SWAP2 PUSH2 0x1AE7 JUMP JUMPDEST DUP3 ADD SWAP2 SWAP1 PUSH1 0x0 MSTORE PUSH1 0x20 PUSH1 0x0 KECCAK256 SWAP1 JUMPDEST DUP2 SLOAD DUP2 MSTORE SWAP1 PUSH1 0x1 ADD SWAP1 PUSH1 0x20 ADD DUP1 DUP4 GT PUSH2 0x1ACA JUMPI DUP3 SWAP1 SUB PUSH1 0x1F AND DUP3 ADD SWAP2 JUMPDEST POP POP POP SWAP2 DUP4 MSTORE POP POP PUSH1 0x6 SWAP2 SWAP1 SWAP2 ADD SLOAD PUSH1 0xFF AND ISZERO ISZERO PUSH1 0x20 SWAP1 SWAP2 ADD MSTORE DUP4 MLOAD DUP5 SWAP1 DUP4 SWAP1 DUP2 LT PUSH2 0x1B15 JUMPI PUSH2 0x1B15 PUSH2 0x28F3 JUMP JUMPDEST PUSH1 0x20 MUL PUSH1 0x20 ADD ADD DUP2 SWAP1 MSTORE POP DUP1 DUP1 PUSH2 0x1B2B SWAP1 PUSH2 0x2777 JUMP JUMPDEST SWAP2 POP POP PUSH2 0x193F JUMP JUMPDEST PUSH1 0x3 PUSH1 0x20 MSTORE DUP2 PUSH1 0x0 MSTORE PUSH1 0x40 PUSH1 0x0 KECCAK256 DUP2 DUP2 SLOAD DUP2 LT PUSH2 0xEEC JUMPI PUSH1 0x0 DUP1 REVERT JUMPDEST PUSH1 0x1 DUP2 LT ISZERO PUSH2 0x1B8C JUMPI PUSH1 0x40 MLOAD PUSH3 0x461BCD PUSH1 0xE5 SHL DUP2 MSTORE PUSH1 0x20 PUSH1 0x4 DUP3 ADD MSTORE PUSH1 0x9 PUSH1 0x24 DUP3 ADD MSTORE PUSH9 0x6D6F6E7468733E3D31 PUSH1 0xB8 SHL PUSH1 0x44 DUP3 ADD MSTORE PUSH1 0x64 ADD PUSH2 0x581 JUMP JUMPDEST PUSH1 0x0 DUP3 DUP2 MSTORE PUSH1 0x2 PUSH1 0x20 DUP2 DUP2 MSTORE PUSH1 0x40 DUP1 DUP5 KECCAK256 DUP2 MLOAD PUSH1 0xE0 DUP2 ADD DUP4 MSTORE DUP2 SLOAD DUP2 MSTORE PUSH1 0x1 DUP3 ADD SLOAD PUSH1 0x1 PUSH1 0x1 PUSH1 0xA0 SHL SUB AND SWAP4 DUP2 ADD SWAP4 SWAP1 SWAP4 MSTORE SWAP3 DUP4 ADD SLOAD SWAP1 DUP3 ADD MSTORE PUSH1 0x3 DUP3 ADD SLOAD PUSH1 0x60 DUP3 ADD MSTORE PUSH1 0x4 DUP3 ADD DUP1 SLOAD SWAP2 SWAP3 SWAP2 PUSH1 0x80 DUP5 ADD SWAP2 SWAP1 PUSH2 0x1BE8 SWAP1 PUSH2 0x2595 JUMP JUMPDEST DUP1 PUSH1 0x1F ADD PUSH1 0x20 DUP1 SWAP2 DIV MUL PUSH1 0x20 ADD PUSH1 0x40 MLOAD SWAP1 DUP2 ADD PUSH1 0x40 MSTORE DUP1 SWAP3 SWAP2 SWAP1 DUP2 DUP2 MSTORE PUSH1 0x20 ADD DUP3 DUP1 SLOAD PUSH2 0x1C14 SWAP1 PUSH2 0x2595 JUMP JUMPDEST DUP1 ISZERO PUSH2 0x1C61 JUMPI DUP1 PUSH1 0x1F LT PUSH2 0x1C36 JUMPI PUSH2 0x100 DUP1 DUP4 SLOAD DIV MUL DUP4 MSTORE SWAP2 PUSH1 0x20 ADD SWAP2 PUSH2 0x1C61 JUMP JUMPDEST DUP3 ADD SWAP2 SWAP1 PUSH1 0x0 MSTORE PUSH1 0x20 PUSH1 0x0 KECCAK256 SWAP1 JUMPDEST DUP2 SLOAD DUP2 MSTORE SWAP1 PUSH1 0x1 ADD SWAP1 PUSH1 0x20 ADD DUP1 DUP4 GT PUSH2 0x1C44 JUMPI DUP3 SWAP1 SUB PUSH1 0x1F AND DUP3 ADD SWAP2 JUMPDEST POP POP POP POP POP DUP2 MSTORE PUSH1 0x20 ADD PUSH1 0x5 DUP3 ADD DUP1 SLOAD PUSH2 0x1C7A SWAP1 PUSH2 0x2595 JUMP JUMPDEST DUP1 PUSH1 0x1F ADD PUSH1 0x20 DUP1 SWAP2 DIV MUL PUSH1 0x20 ADD PUSH1 0x40 MLOAD SWAP1 DUP2 ADD PUSH1 0x40 MSTORE DUP1 SWAP3 SWAP2 SWAP1 DUP2 DUP2 MSTORE PUSH1 0x20 ADD DUP3 DUP1 SLOAD PUSH2 0x1CA6 SWAP1 PUSH2 0x2595 JUMP JUMPDEST DUP1 ISZERO PUSH2 0x1CF3 JUMPI DUP1 PUSH1 0x1F LT PUSH2 0x1CC8 JUMPI PUSH2 0x100 DUP1 DUP4 SLOAD DIV MUL DUP4 MSTORE SWAP2 PUSH1 0x20 ADD SWAP2 PUSH2 0x1CF3 JUMP JUMPDEST DUP3 ADD SWAP2 SWAP1 PUSH1 0x0 MSTORE PUSH1 0x20 PUSH1 0x0 KECCAK256 SWAP1 JUMPDEST DUP2 SLOAD DUP2 MSTORE SWAP1 PUSH1 0x1 ADD SWAP1 PUSH1 0x20 ADD DUP1 DUP4 GT PUSH2 0x1CD6 JUMPI DUP3 SWAP1 SUB PUSH1 0x1F AND DUP3 ADD SWAP2 JUMPDEST POP POP POP SWAP2 DUP4 MSTORE POP POP PUSH1 0x6 SWAP2 SWAP1 SWAP2 ADD SLOAD PUSH1 0xFF SWAP1 DUP2 AND ISZERO ISZERO PUSH1 0x20 SWAP3 DUP4 ADD MSTORE PUSH1 0x1 PUSH1 0x1 PUSH1 0xA0 SHL SUB DUP8 AND PUSH1 0x0 SWAP1 DUP2 MSTORE PUSH1 0x5 DUP4 MSTORE PUSH1 0x40 DUP1 DUP3 KECCAK256 DUP9 DUP4 MSTORE SWAP1 SWAP4 MSTORE SWAP2 SWAP1 SWAP2 KECCAK256 PUSH1 0x3 DUP2 ADD SLOAD SWAP3 SWAP4 POP SWAP2 AND PUSH2 0x1D77 JUMPI PUSH1 0x40 MLOAD PUSH3 0x461BCD PUSH1 0xE5 SHL DUP2 MSTORE PUSH1 0x20 PUSH1 0x4 DUP3 ADD MSTORE PUSH1 0xD PUSH1 0x24 DUP3 ADD MSTORE PUSH13 0x30BABA37A932B732BB9037B333 PUSH1 0x99 SHL PUSH1 0x44 DUP3 ADD MSTORE PUSH1 0x64 ADD PUSH2 0x581 JUMP JUMPDEST TIMESTAMP DUP2 PUSH1 0x2 ADD SLOAD GT ISZERO PUSH2 0x1DBD JUMPI PUSH1 0x40 MLOAD PUSH3 0x461BCD PUSH1 0xE5 SHL DUP2 MSTORE PUSH1 0x20 PUSH1 0x4 DUP3 ADD MSTORE PUSH1 0xF PUSH1 0x24 DUP3 ADD MSTORE PUSH15 0x1B9BDD081E595D08195E1C1A5C9959 PUSH1 0x8A SHL PUSH1 0x44 DUP3 ADD MSTORE PUSH1 0x64 ADD PUSH2 0x581 JUMP JUMPDEST PUSH1 0x0 DUP4 DUP4 PUSH1 0x40 ADD MLOAD PUSH2 0x1DCF SWAP2 SWAP1 PUSH2 0x287A JUMP JUMPDEST PUSH1 0x20 DUP5 ADD MLOAD PUSH1 0x40 MLOAD PUSH4 0x23B872DD PUSH1 0xE0 SHL DUP2 MSTORE PUSH1 0x1 PUSH1 0x1 PUSH1 0xA0 SHL SUB DUP10 DUP2 AND PUSH1 0x4 DUP4 ADD MSTORE SWAP2 DUP3 AND PUSH1 0x24 DUP3 ADD MSTORE PUSH1 0x44 DUP2 ADD DUP4 SWAP1 MSTORE SWAP2 SWAP3 POP PUSH32 0x0 AND SWAP1 PUSH4 0x23B872DD SWAP1 PUSH1 0x64 ADD PUSH1 0x20 PUSH1 0x40 MLOAD DUP1 DUP4 SUB DUP2 PUSH1 0x0 DUP8 GAS CALL ISZERO DUP1 ISZERO PUSH2 0x1E4E JUMPI RETURNDATASIZE PUSH1 0x0 DUP1 RETURNDATACOPY RETURNDATASIZE PUSH1 0x0 REVERT JUMPDEST POP POP POP POP PUSH1 0x40 MLOAD RETURNDATASIZE PUSH1 0x1F NOT PUSH1 0x1F DUP3 ADD AND DUP3 ADD DUP1 PUSH1 0x40 MSTORE POP DUP2 ADD SWAP1 PUSH2 0x1E72 SWAP2 SWAP1 PUSH2 0x2891 JUMP JUMPDEST PUSH2 0x1EB4 JUMPI PUSH1 0x40 MLOAD PUSH3 0x461BCD PUSH1 0xE5 SHL DUP2 MSTORE PUSH1 0x20 PUSH1 0x4 DUP3 ADD MSTORE PUSH1 0x13 PUSH1 0x24 DUP3 ADD MSTORE PUSH19 0x1D1C985B9CD9995C919C9BDB4819985A5B1959 PUSH1 0x6A SHL PUSH1 0x44 DUP3 ADD MSTORE PUSH1 0x64 ADD PUSH2 0x581 JUMP JUMPDEST PUSH1 0x60 DUP4 ADD MLOAD TIMESTAMP SWAP1 PUSH2 0x1EC6 SWAP1 DUP7 SWAP1 PUSH2 0x287A JUMP JUMPDEST PUSH2 0x1ED0 SWAP1 DUP3 PUSH2 0x28AE JUMP JUMPDEST PUSH1 0x2 DUP5 ADD DUP2 SWAP1 SSTORE PUSH1 0x40 DUP1 MLOAD DUP8 DUP2 MSTORE PUSH1 0x20 DUP2 ADD SWAP3 SWAP1 SWAP3 MSTORE DUP8 SWAP2 PUSH1 0x1 PUSH1 0x1 PUSH1 0xA0 SHL SUB DUP11 AND SWAP2 PUSH32 0x97D5A61531816E9A24BA9DE00A9C6C7E9E779FE86F65EE2F1DA5C2699A31831C SWAP2 ADD PUSH2 0xCAA JUMP JUMPDEST PUSH1 0x0 PUSH1 0x1 PUSH1 0x1 PUSH1 0xA0 SHL SUB PUSH32 0x0 AND CALLER SUB PUSH2 0x1F5A JUMPI POP PUSH1 0x27 NOT CALLDATASIZE ADD CALLDATALOAD PUSH1 0x60 SHR SWAP1 JUMP JUMPDEST POP CALLER SWAP1 JUMP JUMPDEST PUSH1 0x40 MLOAD DUP1 PUSH1 0xC0 ADD PUSH1 0x40 MSTORE DUP1 PUSH1 0x0 DUP2 MSTORE PUSH1 0x20 ADD PUSH1 0x0 PUSH1 0x1 PUSH1 0x1 PUSH1 0xA0 SHL SUB AND DUP2 MSTORE PUSH1 0x20 ADD PUSH1 0x60 DUP2 MSTORE PUSH1 0x20 ADD PUSH1 0x60 DUP2 MSTORE PUSH1 0x20 ADD PUSH1 0x0 DUP2 MSTORE PUSH1 0x20 ADD PUSH1 0x0 ISZERO ISZERO DUP2 MSTORE POP SWAP1 JUMP JUMPDEST PUSH1 0x0 PUSH1 0x20 DUP3 DUP5 SUB SLT ISZERO PUSH2 0x1FB2 JUMPI PUSH1 0x0 DUP1 REVERT JUMPDEST POP CALLDATALOAD SWAP2 SWAP1 POP JUMP JUMPDEST PUSH1 0x0 DUP2 MLOAD DUP1 DUP5 MSTORE PUSH1 0x0 JUMPDEST DUP2 DUP2 LT ISZERO PUSH2 0x1FDF JUMPI PUSH1 0x20 DUP2 DUP6 ADD DUP2 ADD MLOAD DUP7 DUP4 ADD DUP3 ADD MSTORE ADD PUSH2 0x1FC3 JUMP JUMPDEST POP PUSH1 0x0 PUSH1 0x20 DUP3 DUP7 ADD ADD MSTORE PUSH1 0x20 PUSH1 0x1F NOT PUSH1 0x1F DUP4 ADD AND DUP6 ADD ADD SWAP2 POP POP SWAP3 SWAP2 POP POP JUMP JUMPDEST DUP1 MLOAD DUP3 MSTORE PUSH1 0x1 DUP1 PUSH1 0xA0 SHL SUB PUSH1 0x20 DUP3 ADD MLOAD AND PUSH1 0x20 DUP4 ADD MSTORE PUSH1 0x0 PUSH1 0x40 DUP3 ADD MLOAD PUSH1 0xC0 PUSH1 0x40 DUP6 ADD MSTORE PUSH2 0x2030 PUSH1 0xC0 DUP6 ADD DUP3 PUSH2 0x1FB9 JUMP JUMPDEST SWAP1 POP PUSH1 0x60 DUP4 ADD MLOAD DUP5 DUP3 SUB PUSH1 0x60 DUP7 ADD MSTORE PUSH2 0x2049 DUP3 DUP3 PUSH2 0x1FB9 JUMP JUMPDEST SWAP2 POP POP PUSH1 0x80 DUP4 ADD MLOAD PUSH1 0x80 DUP6 ADD MSTORE PUSH1 0xA0 DUP4 ADD MLOAD ISZERO ISZERO PUSH1 0xA0 DUP6 ADD MSTORE DUP1 SWAP2 POP POP SWAP3 SWAP2 POP POP JUMP JUMPDEST PUSH1 0x20 DUP2 MSTORE PUSH1 0x0 PUSH2 0x207F PUSH1 0x20 DUP4 ADD DUP5 PUSH2 0x1FFF JUMP JUMPDEST SWAP4 SWAP3 POP POP POP JUMP JUMPDEST PUSH1 0x0 DUP1 DUP4 PUSH1 0x1F DUP5 ADD SLT PUSH2 0x2098 JUMPI PUSH1 0x0 DUP1 REVERT JUMPDEST POP DUP2 CALLDATALOAD PUSH8 0xFFFFFFFFFFFFFFFF DUP2 GT ISZERO PUSH2 0x20B0 JUMPI PUSH1 0x0 DUP1 REVERT JUMPDEST PUSH1 0x20 DUP4 ADD SWAP2 POP DUP4 PUSH1 0x20 DUP3 DUP6 ADD ADD GT ISZERO PUSH2 0x20C8 JUMPI PUSH1 0x0 DUP1 REVERT JUMPDEST SWAP3 POP SWAP3 SWAP1 POP JUMP JUMPDEST DUP1 ISZERO ISZERO DUP2 EQ PUSH2 0x20DD JUMPI PUSH1 0x0 DUP1 REVERT JUMPDEST POP JUMP JUMPDEST PUSH1 0x0 DUP1 PUSH1 0x0 DUP1 PUSH1 0x0 DUP1 PUSH1 0x0 PUSH1 0xA0 DUP9 DUP11 SUB SLT ISZERO PUSH2 0x20FB JUMPI PUSH1 0x0 DUP1 REVERT JUMPDEST DUP8 CALLDATALOAD SWAP7 POP PUSH1 0x20 DUP9 ADD CALLDATALOAD SWAP6 POP PUSH1 0x40 DUP9 ADD CALLDATALOAD PUSH8 0xFFFFFFFFFFFFFFFF DUP1 DUP3 GT ISZERO PUSH2 0x2121 JUMPI PUSH1 0x0 DUP1 REVERT JUMPDEST PUSH2 0x212D DUP12 DUP4 DUP13 ADD PUSH2 0x2086 JUMP JUMPDEST SWAP1 SWAP8 POP SWAP6 POP PUSH1 0x60 DUP11 ADD CALLDATALOAD SWAP2 POP DUP1 DUP3 GT ISZERO PUSH2 0x2146 JUMPI PUSH1 0x0 DUP1 REVERT JUMPDEST POP PUSH2 0x2153 DUP11 DUP3 DUP12 ADD PUSH2 0x2086 JUMP JUMPDEST SWAP1 SWAP5 POP SWAP3 POP POP PUSH1 0x80 DUP9 ADD CALLDATALOAD PUSH2 0x2167 DUP2 PUSH2 0x20CF JUMP JUMPDEST DUP1 SWAP2 POP POP SWAP3 SWAP6 SWAP9 SWAP2 SWAP5 SWAP8 POP SWAP3 SWAP6 POP JUMP JUMPDEST PUSH1 0x0 DUP1 PUSH1 0x0 DUP1 PUSH1 0x0 DUP1 PUSH1 0x80 DUP8 DUP10 SUB SLT ISZERO PUSH2 0x2190 JUMPI PUSH1 0x0 DUP1 REVERT JUMPDEST DUP7 CALLDATALOAD SWAP6 POP PUSH1 0x20 DUP8 ADD CALLDATALOAD SWAP5 POP PUSH1 0x40 DUP8 ADD CALLDATALOAD PUSH8 0xFFFFFFFFFFFFFFFF DUP1 DUP3 GT ISZERO PUSH2 0x21B6 JUMPI PUSH1 0x0 DUP1 REVERT JUMPDEST PUSH2 0x21C2 DUP11 DUP4 DUP12 ADD PUSH2 0x2086 JUMP JUMPDEST SWAP1 SWAP7 POP SWAP5 POP PUSH1 0x60 DUP10 ADD CALLDATALOAD SWAP2 POP DUP1 DUP3 GT ISZERO PUSH2 0x21DB JUMPI PUSH1 0x0 DUP1 REVERT JUMPDEST POP PUSH2 0x21E8 DUP10 DUP3 DUP11 ADD PUSH2 0x2086 JUMP JUMPDEST SWAP8 SWAP11 SWAP7 SWAP10 POP SWAP5 SWAP8 POP SWAP3 SWAP6 SWAP4 SWAP5 SWAP3 POP POP POP JUMP JUMPDEST PUSH1 0x0 DUP1 PUSH1 0x0 PUSH1 0x60 DUP5 DUP7 SUB SLT ISZERO PUSH2 0x220F JUMPI PUSH1 0x0 DUP1 REVERT JUMPDEST DUP4 CALLDATALOAD SWAP3 POP PUSH1 0x20 DUP5 ADD CALLDATALOAD SWAP2 POP PUSH1 0x40 DUP5 ADD CALLDATALOAD PUSH2 0x2228 DUP2 PUSH2 0x20CF JUMP JUMPDEST DUP1 SWAP2 POP POP SWAP3 POP SWAP3 POP SWAP3 JUMP JUMPDEST PUSH1 0x0 DUP1 PUSH1 0x0 DUP1 PUSH1 0x40 DUP6 DUP8 SUB SLT ISZERO PUSH2 0x2249 JUMPI PUSH1 0x0 DUP1 REVERT JUMPDEST DUP5 CALLDATALOAD PUSH8 0xFFFFFFFFFFFFFFFF DUP1 DUP3 GT ISZERO PUSH2 0x2261 JUMPI PUSH1 0x0 DUP1 REVERT JUMPDEST PUSH2 0x226D DUP9 DUP4 DUP10 ADD PUSH2 0x2086 JUMP JUMPDEST SWAP1 SWAP7 POP SWAP5 POP PUSH1 0x20 DUP8 ADD CALLDATALOAD SWAP2 POP DUP1 DUP3 GT ISZERO PUSH2 0x2286 JUMPI PUSH1 0x0 DUP1 REVERT JUMPDEST POP PUSH2 0x2293 DUP8 DUP3 DUP9 ADD PUSH2 0x2086 JUMP JUMPDEST SWAP6 SWAP9 SWAP5 SWAP8 POP SWAP6 POP POP POP POP JUMP JUMPDEST DUP1 CALLDATALOAD PUSH1 0x1 PUSH1 0x1 PUSH1 0xA0 SHL SUB DUP2 AND DUP2 EQ PUSH2 0x22B6 JUMPI PUSH1 0x0 DUP1 REVERT JUMPDEST SWAP2 SWAP1 POP JUMP JUMPDEST PUSH1 0x0 DUP1 PUSH1 0x40 DUP4 DUP6 SUB SLT ISZERO PUSH2 0x22CE JUMPI PUSH1 0x0 DUP1 REVERT JUMPDEST PUSH2 0x22D7 DUP4 PUSH2 0x229F JUMP JUMPDEST SWAP5 PUSH1 0x20 SWAP4 SWAP1 SWAP4 ADD CALLDATALOAD SWAP4 POP POP POP JUMP JUMPDEST PUSH1 0x0 PUSH1 0x20 DUP3 DUP5 SUB SLT ISZERO PUSH2 0x22F7 JUMPI PUSH1 0x0 DUP1 REVERT JUMPDEST PUSH2 0x207F DUP3 PUSH2 0x229F JUMP JUMPDEST PUSH1 0x0 PUSH1 0x20 DUP1 DUP4 ADD DUP2 DUP5 MSTORE DUP1 DUP6 MLOAD DUP1 DUP4 MSTORE PUSH1 0x40 DUP7 ADD SWAP2 POP PUSH1 0x40 DUP2 PUSH1 0x5 SHL DUP8 ADD ADD SWAP3 POP DUP4 DUP8 ADD PUSH1 0x0 JUMPDEST DUP3 DUP2 LT ISZERO PUSH2 0x2355 JUMPI PUSH1 0x3F NOT DUP9 DUP7 SUB ADD DUP5 MSTORE PUSH2 0x2343 DUP6 DUP4 MLOAD PUSH2 0x1FFF JUMP JUMPDEST SWAP5 POP SWAP3 DUP6 ADD SWAP3 SWAP1 DUP6 ADD SWAP1 PUSH1 0x1 ADD PUSH2 0x2327 JUMP JUMPDEST POP SWAP3 SWAP8 SWAP7 POP POP POP POP POP POP POP JUMP JUMPDEST PUSH1 0x0 DUP1 PUSH1 0x40 DUP4 DUP6 SUB SLT ISZERO PUSH2 0x2375 JUMPI PUSH1 0x0 DUP1 REVERT JUMPDEST DUP3 CALLDATALOAD SWAP2 POP PUSH1 0x20 DUP4 ADD CALLDATALOAD PUSH2 0x2387 DUP2 PUSH2 0x20CF JUMP JUMPDEST DUP1 SWAP2 POP POP SWAP3 POP SWAP3 SWAP1 POP JUMP JUMPDEST DUP8 DUP2 MSTORE PUSH1 0x1 DUP1 PUSH1 0xA0 SHL SUB DUP8 AND PUSH1 0x20 DUP3 ADD MSTORE DUP6 PUSH1 0x40 DUP3 ADD MSTORE DUP5 PUSH1 0x60 DUP3 ADD MSTORE PUSH1 0xE0 PUSH1 0x80 DUP3 ADD MSTORE PUSH1 0x0 PUSH2 0x23C5 PUSH1 0xE0 DUP4 ADD DUP7 PUSH2 0x1FB9 JUMP JUMPDEST DUP3 DUP2 SUB PUSH1 0xA0 DUP5 ADD MSTORE PUSH2 0x23D7 DUP2 DUP7 PUSH2 0x1FB9 JUMP JUMPDEST SWAP2 POP POP DUP3 ISZERO ISZERO PUSH1 0xC0 DUP4 ADD MSTORE SWAP9 SWAP8 POP POP POP POP POP POP POP POP JUMP JUMPDEST PUSH1 0x0 DUP1 PUSH1 0x0 DUP1 PUSH1 0x0 DUP1 PUSH1 0x0 DUP1 PUSH2 0x100 DUP10 DUP12 SUB SLT ISZERO PUSH2 0x240B JUMPI PUSH1 0x0 DUP1 REVERT JUMPDEST DUP9 CALLDATALOAD SWAP8 POP PUSH1 0x20 DUP10 ADD CALLDATALOAD SWAP7 POP PUSH1 0x40 DUP10 ADD CALLDATALOAD PUSH2 0x2424 DUP2 PUSH2 0x20CF JUMP JUMPDEST SWAP6 POP PUSH1 0x60 DUP10 ADD CALLDATALOAD SWAP5 POP PUSH1 0x80 DUP10 ADD CALLDATALOAD SWAP4 POP PUSH1 0xA0 DUP10 ADD CALLDATALOAD PUSH1 0xFF DUP2 AND DUP2 EQ PUSH2 0x2448 JUMPI PUSH1 0x0 DUP1 REVERT JUMPDEST SWAP8 SWAP11 SWAP7 SWAP10 POP SWAP5 SWAP8 SWAP4 SWAP7 SWAP3 SWAP6 SWAP3 SWAP5 POP POP POP PUSH1 0xC0 DUP3 ADD CALLDATALOAD SWAP2 PUSH1 0xE0 ADD CALLDATALOAD SWAP1 JUMP JUMPDEST PUSH1 0x0 DUP1 PUSH1 0x40 DUP4 DUP6 SUB SLT ISZERO PUSH2 0x2478 JUMPI PUSH1 0x0 DUP1 REVERT JUMPDEST PUSH2 0x2481 DUP4 PUSH2 0x229F JUMP JUMPDEST SWAP2 POP PUSH2 0x248F PUSH1 0x20 DUP5 ADD PUSH2 0x229F JUMP JUMPDEST SWAP1 POP SWAP3 POP SWAP3 SWAP1 POP JUMP JUMPDEST PUSH1 0x0 PUSH1 0x20 DUP1 DUP4 ADD DUP2 DUP5 MSTORE DUP1 DUP6 MLOAD DUP1 DUP4 MSTORE PUSH1 0x40 SWAP3 POP DUP3 DUP7 ADD SWAP2 POP DUP3 DUP2 PUSH1 0x5 SHL DUP8 ADD ADD DUP5 DUP9 ADD PUSH1 0x0 JUMPDEST DUP4 DUP2 LT ISZERO PUSH2 0x2554 JUMPI DUP9 DUP4 SUB PUSH1 0x3F NOT ADD DUP6 MSTORE DUP2 MLOAD DUP1 MLOAD DUP5 MSTORE DUP8 DUP2 ADD MLOAD PUSH1 0x1 PUSH1 0x1 PUSH1 0xA0 SHL SUB AND DUP9 DUP6 ADD MSTORE DUP7 DUP2 ADD MLOAD DUP8 DUP6 ADD MSTORE PUSH1 0x60 DUP1 DUP3 ADD MLOAD SWAP1 DUP6 ADD MSTORE PUSH1 0x80 DUP1 DUP3 ADD MLOAD PUSH1 0xE0 DUP3 DUP8 ADD DUP2 SWAP1 MSTORE SWAP2 SWAP1 PUSH2 0x2515 DUP4 DUP9 ADD DUP3 PUSH2 0x1FB9 JUMP JUMPDEST SWAP3 POP POP POP PUSH1 0xA0 DUP1 DUP4 ADD MLOAD DUP7 DUP4 SUB DUP3 DUP9 ADD MSTORE PUSH2 0x2530 DUP4 DUP3 PUSH2 0x1FB9 JUMP JUMPDEST PUSH1 0xC0 SWAP5 DUP6 ADD MLOAD ISZERO ISZERO SWAP8 SWAP1 SWAP5 ADD SWAP7 SWAP1 SWAP7 MSTORE POP POP SWAP5 DUP8 ADD SWAP5 SWAP3 POP SWAP1 DUP7 ADD SWAP1 PUSH1 0x1 ADD PUSH2 0x24BF JUMP JUMPDEST POP SWAP1 SWAP9 SWAP8 POP POP POP POP POP POP POP POP JUMP JUMPDEST PUSH1 0x0 DUP1 PUSH1 0x0 PUSH1 0x60 DUP5 DUP7 SUB SLT ISZERO PUSH2 0x2577 JUMPI PUSH1 0x0 DUP1 REVERT JUMPDEST PUSH2 0x2580 DUP5 PUSH2 0x229F JUMP JUMPDEST SWAP6 PUSH1 0x20 DUP6 ADD CALLDATALOAD SWAP6 POP PUSH1 0x40 SWAP1 SWAP5 ADD CALLDATALOAD SWAP4 SWAP3 POP POP POP JUMP JUMPDEST PUSH1 0x1 DUP2 DUP2 SHR SWAP1 DUP3 AND DUP1 PUSH2 0x25A9 JUMPI PUSH1 0x7F DUP3 AND SWAP2 POP JUMPDEST PUSH1 0x20 DUP3 LT DUP2 SUB PUSH2 0x25C9 JUMPI PUSH4 0x4E487B71 PUSH1 0xE0 SHL PUSH1 0x0 MSTORE PUSH1 0x22 PUSH1 0x4 MSTORE PUSH1 0x24 PUSH1 0x0 REVERT JUMPDEST POP SWAP2 SWAP1 POP JUMP JUMPDEST PUSH4 0x4E487B71 PUSH1 0xE0 SHL PUSH1 0x0 MSTORE PUSH1 0x41 PUSH1 0x4 MSTORE PUSH1 0x24 PUSH1 0x0 REVERT JUMPDEST PUSH1 0x1F DUP3 GT ISZERO PUSH2 0x262F JUMPI PUSH1 0x0 DUP2 DUP2 MSTORE PUSH1 0x20 DUP2 KECCAK256 PUSH1 0x1F DUP6 ADD PUSH1 0x5 SHR DUP2 ADD PUSH1 0x20 DUP7 LT ISZERO PUSH2 0x260C JUMPI POP DUP1 JUMPDEST PUSH1 0x1F DUP6 ADD PUSH1 0x5 SHR DUP3 ADD SWAP2 POP JUMPDEST DUP2 DUP2 LT ISZERO PUSH2 0x262B JUMPI DUP3 DUP2 SSTORE PUSH1 0x1 ADD PUSH2 0x2618 JUMP JUMPDEST POP POP POP JUMPDEST POP POP POP JUMP JUMPDEST PUSH8 0xFFFFFFFFFFFFFFFF DUP4 GT ISZERO PUSH2 0x264C JUMPI PUSH2 0x264C PUSH2 0x25CF JUMP JUMPDEST PUSH2 0x2660 DUP4 PUSH2 0x265A DUP4 SLOAD PUSH2 0x2595 JUMP JUMPDEST DUP4 PUSH2 0x25E5 JUMP JUMPDEST PUSH1 0x0 PUSH1 0x1F DUP5 GT PUSH1 0x1 DUP2 EQ PUSH2 0x2694 JUMPI PUSH1 0x0 DUP6 ISZERO PUSH2 0x267C JUMPI POP DUP4 DUP3 ADD CALLDATALOAD JUMPDEST PUSH1 0x0 NOT PUSH1 0x3 DUP8 SWAP1 SHL SHR NOT AND PUSH1 0x1 DUP7 SWAP1 SHL OR DUP4 SSTORE PUSH2 0x26EE JUMP JUMPDEST PUSH1 0x0 DUP4 DUP2 MSTORE PUSH1 0x20 SWAP1 KECCAK256 PUSH1 0x1F NOT DUP7 AND SWAP1 DUP4 JUMPDEST DUP3 DUP2 LT ISZERO PUSH2 0x26C5 JUMPI DUP7 DUP6 ADD CALLDATALOAD DUP3 SSTORE PUSH1 0x20 SWAP5 DUP6 ADD SWAP5 PUSH1 0x1 SWAP1 SWAP3 ADD SWAP2 ADD PUSH2 0x26A5 JUMP JUMPDEST POP DUP7 DUP3 LT ISZERO PUSH2 0x26E2 JUMPI PUSH1 0x0 NOT PUSH1 0xF8 DUP9 PUSH1 0x3 SHL AND SHR NOT DUP5 DUP8 ADD CALLDATALOAD AND DUP2 SSTORE JUMPDEST POP POP PUSH1 0x1 DUP6 PUSH1 0x1 SHL ADD DUP4 SSTORE JUMPDEST POP POP POP POP POP JUMP JUMPDEST DUP2 DUP4 MSTORE DUP2 DUP2 PUSH1 0x20 DUP6 ADD CALLDATACOPY POP PUSH1 0x0 DUP3 DUP3 ADD PUSH1 0x20 SWAP1 DUP2 ADD SWAP2 SWAP1 SWAP2 MSTORE PUSH1 0x1F SWAP1 SWAP2 ADD PUSH1 0x1F NOT AND SWAP1 SWAP2 ADD ADD SWAP1 JUMP JUMPDEST DUP7 DUP2 MSTORE PUSH1 0x80 PUSH1 0x20 DUP3 ADD MSTORE PUSH1 0x0 PUSH2 0x2738 PUSH1 0x80 DUP4 ADD DUP8 DUP10 PUSH2 0x26F5 JUMP JUMPDEST DUP3 DUP2 SUB PUSH1 0x40 DUP5 ADD MSTORE PUSH2 0x274B DUP2 DUP7 DUP9 PUSH2 0x26F5 JUMP JUMPDEST SWAP2 POP POP DUP3 ISZERO ISZERO PUSH1 0x60 DUP4 ADD MSTORE SWAP8 SWAP7 POP POP POP POP POP POP POP JUMP JUMPDEST PUSH4 0x4E487B71 PUSH1 0xE0 SHL PUSH1 0x0 MSTORE PUSH1 0x11 PUSH1 0x4 MSTORE PUSH1 0x24 PUSH1 0x0 REVERT JUMPDEST PUSH1 0x0 PUSH1 0x1 DUP3 ADD PUSH2 0x2789 JUMPI PUSH2 0x2789 PUSH2 0x2761 JUMP JUMPDEST POP PUSH1 0x1 ADD SWAP1 JUMP JUMPDEST DUP2 MLOAD PUSH8 0xFFFFFFFFFFFFFFFF DUP2 GT ISZERO PUSH2 0x27AA JUMPI PUSH2 0x27AA PUSH2 0x25CF JUMP JUMPDEST PUSH2 0x27BE DUP2 PUSH2 0x27B8 DUP5 SLOAD PUSH2 0x2595 JUMP JUMPDEST DUP5 PUSH2 0x25E5 JUMP JUMPDEST PUSH1 0x20 DUP1 PUSH1 0x1F DUP4 GT PUSH1 0x1 DUP2 EQ PUSH2 0x27F3 JUMPI PUSH1 0x0 DUP5 ISZERO PUSH2 0x27DB JUMPI POP DUP6 DUP4 ADD MLOAD JUMPDEST PUSH1 0x0 NOT PUSH1 0x3 DUP7 SWAP1 SHL SHR NOT AND PUSH1 0x1 DUP6 SWAP1 SHL OR DUP6 SSTORE PUSH2 0x262B JUMP JUMPDEST PUSH1 0x0 DUP6 DUP2 MSTORE PUSH1 0x20 DUP2 KECCAK256 PUSH1 0x1F NOT DUP7 AND SWAP2 JUMPDEST DUP3 DUP2 LT ISZERO PUSH2 0x2822 JUMPI DUP9 DUP7 ADD MLOAD DUP3 SSTORE SWAP5 DUP5 ADD SWAP5 PUSH1 0x1 SWAP1 SWAP2 ADD SWAP1 DUP5 ADD PUSH2 0x2803 JUMP JUMPDEST POP DUP6 DUP3 LT ISZERO PUSH2 0x2840 JUMPI DUP8 DUP6 ADD MLOAD PUSH1 0x0 NOT PUSH1 0x3 DUP9 SWAP1 SHL PUSH1 0xF8 AND SHR NOT AND DUP2 SSTORE JUMPDEST POP POP POP POP POP PUSH1 0x1 SWAP1 DUP2 SHL ADD SWAP1 SSTORE POP JUMP JUMPDEST DUP5 DUP2 MSTORE DUP4 PUSH1 0x20 DUP3 ADD MSTORE PUSH1 0x60 PUSH1 0x40 DUP3 ADD MSTORE PUSH1 0x0 PUSH2 0x2870 PUSH1 0x60 DUP4 ADD DUP5 DUP7 PUSH2 0x26F5 JUMP JUMPDEST SWAP7 SWAP6 POP POP POP POP POP POP JUMP JUMPDEST DUP1 DUP3 MUL DUP2 ISZERO DUP3 DUP3 DIV DUP5 EQ OR PUSH2 0x1837 JUMPI PUSH2 0x1837 PUSH2 0x2761 JUMP JUMPDEST PUSH1 0x0 PUSH1 0x20 DUP3 DUP5 SUB SLT ISZERO PUSH2 0x28A3 JUMPI PUSH1 0x0 DUP1 REVERT JUMPDEST DUP2 MLOAD PUSH2 0x207F DUP2 PUSH2 0x20CF JUMP JUMPDEST DUP1 DUP3 ADD DUP1 DUP3 GT ISZERO PUSH2 0x1837 JUMPI PUSH2 0x1837 PUSH2 0x2761 JUMP JUMPDEST PUSH1 0x40 DUP2 MSTORE PUSH1 0x0 PUSH2 0x28D5 PUSH1 0x40 DUP4 ADD DUP7 DUP9 PUSH2 0x26F5 JUMP JUMPDEST DUP3 DUP2 SUB PUSH1 0x20 DUP5 ADD MSTORE PUSH2 0x28E8 DUP2 DUP6 DUP8 PUSH2 0x26F5 JUMP JUMPDEST SWAP8 SWAP7 POP POP POP POP POP POP POP JUMP JUMPDEST PUSH4 0x4E487B71 PUSH1 0xE0 SHL PUSH1 0x0 MSTORE PUSH1 0x32 PUSH1 0x4 MSTORE PUSH1 0x24 PUSH1 0x0 REVERT INVALID LOG2 PUSH5 0x6970667358 0x22 SLT KECCAK256 TIMESTAMP PUSH2 0x70BE 0x23 0x4F DELEGATECALL STOP SWAP12 COINBASE PUSH3 0x557046 BYTE 0xDD 0xD EXTCODESIZE EQ 0x4E 0xB8 POP DUP4 0xAB CODECOPY 0xCF 0xCF DIV 0xAF PUSH11 0xDEDD64736F6C6343000815 STOP CALLER "},"methodIdentifiers":{"WMON()":"f1435d29","cancel(uint256)":"40e58ee5","chargeRenewal(address,uint256,uint256)":"e9cc2974","createPlan(uint256,uint256,string,string)":"2f57f3f7","creatorContents(address,uint256)":"401a9685","creatorPlans(address,uint256)":"dcc9e3fc","forwarder()":"f645d4f9","getContent(uint256)":"0b7ad54c","getCreatorContents(address)":"40374733","getCreatorPlans(address)":"c9f66f7f","isSubscriber(address,address)":"c5f7b35a","nextContentId()":"0a248d7f","nextPlanId()":"5f8d26b2","plans(uint256)":"b1620616","subscribe(uint256,uint256,bool)":"38d7a8ff","subscribeWithPermit(uint256,uint256,bool,uint256,uint256,uint8,bytes32,bytes32)":"c20267b0","subscriptions(address,uint256)":"623da3d1","toggleContent(uint256,bool)":"8f3ae583","updatePlan(uint256,uint256,string,string,bool)":"21d633d8","uploadContent(string,string)":"3ad3d548"}}}}}