{
  "_format": "hh-sol-artifact-1",
  "contractName": "MonPaySubscription",
  "sourceName": "contracts/MonPaySubscription.sol",
  "abi": [
    {
      "inputs": [
        {
          "internalType": "address",
          "name": "_wmon",
          "type": "address"
        },
        {
          "internalType": "address",
          "name": "_forwarder",
          "type": "address"
        }
      ],
      "stateMutability": "nonpayable",
      "type": "constructor"
    },
    {
      "anonymous": false,
      "inputs": [
        {
          "indexed": true,
          "internalType": "address",
          "name": "subscriber",
          "type": "address"
        },
        {
          "indexed": true,
          "internalType": "uint256",
          "name": "planId",
          "type": "uint256"
        }
      ],
      "name": "Cancelled",
      "type": "event"
    },
    {
      "anonymous": false,
      "inputs": [
        {
          "indexed": true,
          "internalType": "uint256",
          "name": "contentId",
          "type": "uint256"
        },
        {
          "indexed": false,
          "internalType": "bool",
          "name": "active",
          "type": "bool"
        }
      ],
      "name": "ContentToggled",
      "type": "event"
    },
    {
      "anonymous": false,
      "inputs": [
        {
          "indexed": true,
          "internalType": "uint256",
          "name": "contentId",
          "type": "uint256"
        },
        {
          "indexed": true,
          "internalType": "address",
          "name": "creator",
          "type": "address"
        },
        {
          "indexed": false,
          "internalType": "string",
          "name": "uri",
          "type": "string"
        },
        {
          "indexed": false,
          "internalType": "string",
          "name": "title",
          "type": "string"
        }
      ],
      "name": "ContentUploaded",
      "type": "event"
    },
    {
      "anonymous": false,
      "inputs": [
        {
          "indexed": true,
          "internalType": "uint256",
          "name": "planId",
          "type": "uint256"
        },
        {
          "indexed": true,
          "internalType": "address",
          "name": "creator",
          "type": "address"
        },
        {
          "indexed": false,
          "internalType": "uint256",
          "name": "price",
          "type": "uint256"
        },
        {
          "indexed": false,
          "internalType": "uint256",
          "name": "period",
          "type": "uint256"
        },
        {
          "indexed": false,
          "internalType": "string",
          "name": "name",
          "type": "string"
        }
      ],
      "name": "PlanCreated",
      "type": "event"
    },
    {
      "anonymous": false,
      "inputs": [
        {
          "indexed": true,
          "internalType": "uint256",
          "name": "planId",
          "type": "uint256"
        },
        {
          "indexed": false,
          "internalType": "uint256",
          "name": "price",
          "type": "uint256"
        },
        {
          "indexed": false,
          "internalType": "string",
          "name": "name",
          "type": "string"
        },
        {
          "indexed": false,
          "internalType": "string",
          "name": "description",
          "type": "string"
        },
        {
          "indexed": false,
          "internalType": "bool",
          "name": "active",
          "type": "bool"
        }
      ],
      "name": "PlanUpdated",
      "type": "event"
    },
    {
      "anonymous": false,
      "inputs": [
        {
          "indexed": true,
          "internalType": "address",
          "name": "subscriber",
          "type": "address"
        },
        {
          "indexed": true,
          "internalType": "uint256",
          "name": "planId",
          "type": "uint256"
        },
        {
          "indexed": false,
          "internalType": "uint256",
          "name": "months",
          "type": "uint256"
        },
        {
          "indexed": false,
          "internalType": "uint256",
          "name": "newExpiry",
          "type": "uint256"
        }
      ],
      "name": "Renewed",
      "type": "event"
    },
    {
      "anonymous": false,
      "inputs": [
        {
          "indexed": true,
          "internalType": "address",
          "name": "creator",
          "type": "address"
        },
        {
          "indexed": false,
          "internalType": "uint256",
          "name": "amount",
          "type": "uint256"
        }
      ],
      "name": "RevenueWithdrawn",
      "type": "event"
    },
    {
      "anonymous": false,
      "inputs": [
        {
          "indexed": true,
          "internalType": "address",
          "name": "subscriber",
          "type": "address"
        },
        {
          "indexed": true,
          "internalType": "uint256",
          "name": "planId",
          "type": "uint256"
        },
        {
          "indexed": false,
          "internalType": "uint256",
          "name": "months",
          "type": "uint256"
        },
        {
          "indexed": false,
          "internalType": "uint256",
          "name": "expiresAt",
          "type": "uint256"
        },
        {
          "indexed": false,
          "internalType": "bool",
          "name": "autoRenew",
          "type": "bool"
        }
      ],
      "name": "Subscribed",
      "type": "event"
    },
    {
      "inputs": [],
      "name": "WMON",
      "outputs": [
        {
          "internalType": "contract IERC20",
          "name": "",
          "type": "address"
        }
      ],
      "stateMutability": "view",
      "type": "function"
    },
    {
      "inputs": [
        {
          "internalType": "uint256",
          "name": "planId",
          "type": "uint256"
        }
      ],
      "name": "cancel",
      "outputs": [],
      "stateMutability": "nonpayable",
      "type": "function"
    },
    {
      "inputs": [
        {
          "internalType": "address",
          "name": "subscriber",
          "type": "address"
        },
        {
          "internalType": "uint256",
          "name": "planId",
          "type": "uint256"
        },
        {
          "internalType": "uint256",
          "name": "months",
          "type": "uint256"
        }
      ],
      "name": "chargeRenewal",
      "outputs": [],
      "stateMutability": "nonpayable",
      "type": "function"
    },
    {
      "inputs": [
        {
          "internalType": "uint256",
          "name": "price",
          "type": "uint256"
        },
        {
          "internalType": "uint256",
          "name": "periodSeconds",
          "type": "uint256"
        },
        {
          "internalType": "string",
          "name": "name",
          "type": "string"
        },
        {
          "internalType": "string",
          "name": "description",
          "type": "string"
        }
      ],
      "name": "createPlan",
      "outputs": [
        {
          "internalType": "uint256",
          "name": "planId",
          "type": "uint256"
        }
      ],
      "stateMutability": "nonpayable",
      "type": "function"
    },
    {
      "inputs": [
        {
          "internalType": "address",
          "name": "",
          "type": "address"
        },
        {
          "internalType": "uint256",
          "name": "",
          "type": "uint256"
        }
      ],
      "name": "creatorContents",
      "outputs": [
        {
          "internalType": "uint256",
          "name": "",
          "type": "uint256"
        }
      ],
      "stateMutability": "view",
      "type": "function"
    },
    {
      "inputs": [
        {
          "internalType": "address",
          "name": "",
          "type": "address"
        },
        {
          "internalType": "uint256",
          "name": "",
          "type": "uint256"
        }
      ],
      "name": "creatorPlans",
      "outputs": [
        {
          "internalType": "uint256",
          "name": "",
          "type": "uint256"
        }
      ],
      "stateMutability": "view",
      "type": "function"
    },
    {
      "inputs": [],
      "name": "forwarder",
      "outputs": [
        {
          "internalType": "address",
          "name": "",
          "type": "address"
        }
      ],
      "stateMutability": "view",
      "type": "function"
    },
    {
      "inputs": [
        {
          "internalType": "uint256",
          "name": "contentId",
          "type": "uint256"
        }
      ],
      "name": "getContent",
      "outputs": [
        {
          "components": [
            {
              "internalType": "uint256",
              "name": "id",
              "type": "uint256"
            },
            {
              "internalType": "address",
              "name": "creator",
              "type": "address"
            },
            {
              "internalType": "string",
              "name": "uri",
              "type": "string"
            },
            {
              "internalType": "string",
              "name": "title",
              "type": "string"
            },
            {
              "internalType": "uint256",
              "name": "createdAt",
              "type": "uint256"
            },
            {
              "internalType": "bool",
              "name": "active",
              "type": "bool"
            }
          ],
          "internalType": "struct MonPaySubscription.Content",
          "name": "",
          "type": "tuple"
        }
      ],
      "stateMutability": "view",
      "type": "function"
    },
    {
      "inputs": [
        {
          "internalType": "address",
          "name": "creator",
          "type": "address"
        }
      ],
      "name": "getCreatorContents",
      "outputs": [
        {
          "components": [
            {
              "internalType": "uint256",
              "name": "id",
              "type": "uint256"
            },
            {
              "internalType": "address",
              "name": "creator",
              "type": "address"
            },
            {
              "internalType": "string",
              "name": "uri",
              "type": "string"
            },
            {
              "internalType": "string",
              "name": "title",
              "type": "string"
            },
            {
              "internalType": "uint256",
              "name": "createdAt",
              "type": "uint256"
            },
            {
              "internalType": "bool",
              "name": "active",
              "type": "bool"
            }
          ],
          "internalType": "struct MonPaySubscription.Content[]",
          "name": "arr",
          "type": "tuple[]"
        }
      ],
      "stateMutability": "view",
      "type": "function"
    },
    {
      "inputs": [
        {
          "internalType": "address",
          "name": "creator",
          "type": "address"
        }
      ],
      "name": "getCreatorPlans",
      "outputs": [
        {
          "components": [
            {
              "internalType": "uint256",
              "name": "id",
              "type": "uint256"
            },
            {
              "internalType": "address",
              "name": "creator",
              "type": "address"
            },
            {
              "internalType": "uint256",
              "name": "price",
              "type": "uint256"
            },
            {
              "internalType": "uint256",
              "name": "period",
              "type": "uint256"
            },
            {
              "internalType": "string",
              "name": "name",
              "type": "string"
            },
            {
              "internalType": "string",
              "name": "description",
              "type": "string"
            },
            {
              "internalType": "bool",
              "name": "active",
              "type": "bool"
            }
          ],
          "internalType": "struct MonPaySubscription.Plan[]",
          "name": "arr",
          "type": "tuple[]"
        }
      ],
      "stateMutability": "view",
      "type": "function"
    },
    {
      "inputs": [
        {
          "internalType": "address",
          "name": "creator",
          "type": "address"
        },
        {
          "internalType": "address",
          "name": "user",
          "type": "address"
        }
      ],
      "name": "isSubscriber",
      "outputs": [
        {
          "internalType": "bool",
          "name": "",
          "type": "bool"
        }
      ],
      "stateMutability": "view",
      "type": "function"
    },
    {
      "inputs": [],
      "name": "nextContentId",
      "outputs": [
        {
          "internalType": "uint256",
          "name": "",
          "type": "uint256"
        }
      ],
      "stateMutability": "view",
      "type": "function"
    },
    {
      "inputs": [],
      "name": "nextPlanId",
      "outputs": [
        {
          "internalType": "uint256",
          "name": "",
          "type": "uint256"
        }
      ],
      "stateMutability": "view",
      "type": "function"
    },
    {
      "inputs": [
        {
          "internalType": "uint256",
          "name": "",
          "type": "uint256"
        }
      ],
      "name": "plans",
      "outputs": [
        {
          "internalType": "uint256",
          "name": "id",
          "type": "uint256"
        },
        {
          "internalType": "address",
          "name": "creator",
          "type": "address"
        },
        {
          "internalType": "uint256",
          "name": "price",
          "type": "uint256"
        },
        {
          "internalType": "uint256",
          "name": "period",
          "type": "uint256"
        },
        {
          "internalType": "string",
          "name": "name",
          "type": "string"
        },
        {
          "internalType": "string",
          "name": "description",
          "type": "string"
        },
        {
          "internalType": "bool",
          "name": "active",
          "type": "bool"
        }
      ],
      "stateMutability": "view",
      "type": "function"
    },
    {
      "inputs": [
        {
          "internalType": "uint256",
          "name": "planId",
          "type": "uint256"
        },
        {
          "internalType": "uint256",
          "name": "months",
          "type": "uint256"
        },
        {
          "internalType": "bool",
          "name": "autoRenew_",
          "type": "bool"
        }
      ],
      "name": "subscribe",
      "outputs": [],
      "stateMutability": "nonpayable",
      "type": "function"
    },
    {
      "inputs": [
        {
          "internalType": "uint256",
          "name": "planId",
          "type": "uint256"
        },
        {
          "internalType": "uint256",
          "name": "months",
          "type": "uint256"
        },
        {
          "internalType": "bool",
          "name": "autoRenew_",
          "type": "bool"
        },
        {
          "internalType": "uint256",
          "name": "value",
          "type": "uint256"
        },
        {
          "internalType": "uint256",
          "name": "deadline",
          "type": "uint256"
        },
        {
          "internalType": "uint8",
          "name": "v",
          "type": "uint8"
        },
        {
          "internalType": "bytes32",
          "name": "r",
          "type": "bytes32"
        },
        {
          "internalType": "bytes32",
          "name": "s",
          "type": "bytes32"
        }
      ],
      "name": "subscribeWithPermit",
      "outputs": [],
      "stateMutability": "nonpayable",
      "type": "function"
    },
    {
      "inputs": [
        {
          "internalType": "address",
          "name": "",
          "type": "address"
        },
        {
          "internalType": "uint256",
          "name": "",
          "type": "uint256"
        }
      ],
      "name": "subscriptions",
      "outputs": [
        {
          "internalType": "uint256",
          "name": "planId",
          "type": "uint256"
        },
        {
          "internalType": "address",
          "name": "subscriber",
          "type": "address"
        },
        {
          "internalType": "uint256",
          "name": "expiresAt",
          "type": "uint256"
        },
        {
          "internalType": "bool",
          "name": "autoRenew",
          "type": "bool"
        }
      ],
      "stateMutability": "view",
      "type": "function"
    },
    {
      "inputs": [
        {
          "internalType": "uint256",
          "name": "contentId",
          "type": "uint256"
        },
        {
          "internalType": "bool",
          "name": "active",
          "type": "bool"
        }
      ],
      "name": "toggleContent",
      "outputs": [],
      "stateMutability": "nonpayable",
      "type": "function"
    },
    {
      "inputs": [
        {
          "internalType": "uint256",
          "name": "planId",
          "type": "uint256"
        },
        {
          "internalType": "uint256",
          "name": "price",
          "type": "uint256"
        },
        {
          "internalType": "string",
          "name": "name",
          "type": "string"
        },
        {
          "internalType": "string",
          "name": "description",
          "type": "string"
        },
        {
          "internalType": "bool",
          "name": "active",
          "type": "bool"
        }
      ],
      "name": "updatePlan",
      "outputs": [],
      "stateMutability": "nonpayable",
      "type": "function"
    },
    {
      "inputs": [
        {
          "internalType": "string",
          "name": "uri",
          "type": "string"
        },
        {
          "internalType": "string",
          "name": "title",
          "type": "string"
        }
      ],
      "name": "uploadContent",
      "outputs": [
        {
          "internalType": "uint256",
          "name": "contentId",
          "type": "uint256"
        }
      ],
      "stateMutability": "nonpayable",
      "type": "function"
    }
  ],
  "bytecode": "0x60c06040526001600055600180553480156200001a57600080fd5b5060405162002a8838038062002a888339810160408190526200003d91620000cf565b6001600160a01b038216158015906200005e57506001600160a01b03811615155b6200009a5760405162461bcd60e51b81526020600482015260086024820152673130b21030b2323960c11b604482015260640160405180910390fd5b6001600160a01b0391821660a0521660805262000107565b80516001600160a01b0381168114620000ca57600080fd5b919050565b60008060408385031215620000e357600080fd5b620000ee83620000b2565b9150620000fe60208401620000b2565b90509250929050565b60805160a05161293f620001496000396000818161033b01528181610aa20152818161163e0152611e0501526000818161037a0152611f27015261293f6000f3fe608060405234801561001057600080fd5b506004361061012c5760003560e01c8063623da3d1116100ad578063c9f66f7f11610071578063c9f66f7f146102f0578063dcc9e3fc14610310578063e9cc297414610323578063f1435d2914610336578063f645d4f91461037557600080fd5b8063623da3d11461020a5780638f3ae58314610281578063b162061614610294578063c20267b0146102ba578063c5f7b35a146102cd57600080fd5b80633ad3d548116100f45780633ad3d548146101a8578063401a9685146101bb57806340374733146101ce57806340e58ee5146101ee5780635f8d26b21461020157600080fd5b80630a248d7f146101315780630b7ad54c1461014d57806321d633d81461016d5780632f57f3f71461018257806338d7a8ff14610195575b600080fd5b61013a60015481565b6040519081526020015b60405180910390f35b61016061015b366004611fa0565b61039c565b604051610144919061206c565b61018061017b3660046120e0565b610522565b005b61013a610190366004612177565b610620565b6101806101a33660046121fa565b61088a565b61013a6101b6366004612233565b610cbb565b61013a6101c93660046122bb565b610ed0565b6101e16101dc3660046122e5565b610f01565b6040516101449190612300565b6101806101fc366004611fa0565b6111b0565b61013a60005481565b6102576102183660046122bb565b6005602090815260009283526040808420909152908252902080546001820154600283015460039093015491926001600160a01b039091169160ff1684565b604080519485526001600160a01b0390931660208501529183015215156060820152608001610144565b61018061028f366004612362565b61126e565b6102a76102a2366004611fa0565b61131c565b6040516101449796959493929190612392565b6101806102c83660046123ee565b611477565b6102e06102db366004612465565b611713565b6040519015158152602001610144565b6103036102fe3660046122e5565b61183d565b6040516101449190612498565b61013a61031e3660046122bb565b611b33565b610180610331366004612562565b611b4f565b61035d7f000000000000000000000000000000000000000000000000000000000000000081565b6040516001600160a01b039091168152602001610144565b61035d7f000000000000000000000000000000000000000000000000000000000000000081565b6103a4611f5f565b600082815260066020908152604091829020825160c0810184528154815260018201546001600160a01b03169281019290925260028101805492939192918401916103ee90612595565b80601f016020809104026020016040519081016040528092919081815260200182805461041a90612595565b80156104675780601f1061043c57610100808354040283529160200191610467565b820191906000526020600020905b81548152906001019060200180831161044a57829003601f168201915b5050505050815260200160038201805461048090612595565b80601f01602080910402602001604051908101604052809291908181526020018280546104ac90612595565b80156104f95780601f106104ce576101008083540402835291602001916104f9565b820191906000526020600020905b8154815290600101906020018083116104dc57829003601f168201915b50505091835250506004820154602082015260059091015460ff16151560409091015292915050565b8661052b611f1b565b6000828152600260205260409020600101546001600160a01b0390811691161461058a5760405162461bcd60e51b815260206004820152600b60248201526a3737ba1031b932b0ba37b960a91b60448201526064015b60405180910390fd5b6000888152600260208190526040909120908101889055600481016105b0878983612634565b50600581016105c0858783612634565b5060068101805460ff191684151517905560405189907fba46c663d468954f8d44e930ccea7a97979c92200e52fc663c333c07f2a7de0d9061060d908b908b908b908b908b908b9061271e565b60405180910390a2505050505050505050565b600080871161065b5760405162461bcd60e51b8152602060048201526007602482015266070726963653d360cc1b6044820152606401610581565b620151808610156106a15760405162461bcd60e51b815260206004820152601060248201526f1c195c9a5bd9081d1bdbc81cdb585b1b60821b6044820152606401610581565b6000805490806106b083612777565b9190505590506040518060e001604052808281526020016106cf611f1b565b6001600160a01b0316815260200188815260200187815260200186868080601f016020809104026020016040519081016040528093929190818152602001838380828437600092019190915250505090825250604080516020601f87018190048102820181019092528581529181019190869086908190840183828082843760009201829052509385525050600160209384018190528583526002808552604093849020865181559486015191850180546001600160a01b0319166001600160a01b039093169290921790915591840151918301919091555060608201516003820155608082015160048201906107c69082612790565b5060a082015160058201906107db9082612790565b5060c091909101516006909101805460ff191691151591909117905560036000610803611f1b565b6001600160a01b031681526020808201929092526040016000908120805460018101825590825291902001819055610839611f1b565b6001600160a01b0316817f9184aa9cb3a12afcaa9b180c66281aef283ce89864edec70edc869891754f9fd898989896040516108789493929190612850565b60405180910390a39695505050505050565b60018210156108c75760405162461bcd60e51b81526020600482015260096024820152686d6f6e7468733e3d3160b81b6044820152606401610581565b6000838152600260208181526040808420815160e0810183528154815260018201546001600160a01b03169381019390935292830154908201526003820154606082015260048201805491929160808401919061092390612595565b80601f016020809104026020016040519081016040528092919081815260200182805461094f90612595565b801561099c5780601f106109715761010080835404028352916020019161099c565b820191906000526020600020905b81548152906001019060200180831161097f57829003601f168201915b505050505081526020016005820180546109b590612595565b80601f01602080910402602001604051908101604052809291908181526020018280546109e190612595565b8015610a2e5780601f10610a0357610100808354040283529160200191610a2e565b820191906000526020600020905b815481529060010190602001808311610a1157829003601f168201915b50505091835250506006919091015460ff16151560209091015260c0810151909150610a8c5760405162461bcd60e51b815260206004820152600d60248201526c34b730b1ba34bb3290383630b760991b6044820152606401610581565b6000838260400151610a9e919061287a565b90507f00000000000000000000000000000000000000000000000000000000000000006001600160a01b03166323b872dd610ad7611f1b565b60208501516040516001600160e01b031960e085901b1681526001600160a01b03928316600482015291166024820152604481018490526064016020604051808303816000875af1158015610b30573d6000803e3d6000fd5b505050506040513d601f19601f82011682018060405250810190610b549190612891565b610b965760405162461bcd60e51b81526020600482015260136024820152721d1c985b9cd9995c919c9bdb4819985a5b1959606a1b6044820152606401610581565b600060056000610ba4611f1b565b6001600160a01b03166001600160a01b0316815260200190815260200160002060008781526020019081526020016000209050600042826002015411610bea5742610bf0565b81600201545b8783559050610bfd611f1b565b6001830180546001600160a01b0319166001600160a01b03929092169190911790556060840151610c2f90879061287a565b610c3990826128ae565b600283015560038201805460ff191686151517905586610c57611f1b565b6001600160a01b03167f98dce42f43ceed44f84a429603ec0585f84dd77f9e9aa904ad1b7a9c9c81bc1388856002015489604051610caa9392919092835260208301919091521515604082015260600190565b60405180910390a350505050505050565b600083610cf95760405162461bcd60e51b815260206004820152600c60248201526b1d5c9a481c995c5d5a5c995960a21b6044820152606401610581565b60018054906000610d0983612777565b91905055905060046000610d1b611f1b565b6001600160a01b031681526020808201929092526040908101600090812080546001810182559082529083902001839055805160c08101909152828152908101610d63611f1b565b6001600160a01b0316815260200186868080601f016020809104026020016040519081016040528093929190818152602001838380828437600092019190915250505090825250604080516020601f8701819004810282018101909252858152918101919086908690819084018382808284376000920182905250938552505042602080850191909152600160409485018190528684526006825292849020855181559085015192810180546001600160a01b0319166001600160a01b039094169390931790925550908201516002820190610e3f9082612790565b5060608201516003820190610e549082612790565b506080820151600482015560a0909101516005909101805460ff1916911515919091179055610e81611f1b565b6001600160a01b0316817f8daa74a83f2eb8d1ef28b9efad4412c0afce7cb2deeea7e197c4b1e3d4bc5c5487878787604051610ec094939291906128c1565b60405180910390a3949350505050565b60046020528160005260406000208181548110610eec57600080fd5b90600052602060002001600091509150505481565b6001600160a01b0381166000908152600460209081526040808320805482518185028101850190935280835260609493830182828015610f6057602002820191906000526020600020905b815481526020019060010190808311610f4c575b50505050509050805167ffffffffffffffff811115610f8157610f816125cf565b604051908082528060200260200182016040528015610fba57816020015b610fa7611f5f565b815260200190600190039081610f9f5790505b50915060005b81518110156111a95760066000838381518110610fdf57610fdf6128f3565b602002602001015181526020019081526020016000206040518060c0016040529081600082015481526020016001820160009054906101000a90046001600160a01b03166001600160a01b03166001600160a01b0316815260200160028201805461104990612595565b80601f016020809104026020016040519081016040528092919081815260200182805461107590612595565b80156110c25780601f10611097576101008083540402835291602001916110c2565b820191906000526020600020905b8154815290600101906020018083116110a557829003601f168201915b505050505081526020016003820180546110db90612595565b80601f016020809104026020016040519081016040528092919081815260200182805461110790612595565b80156111545780601f1061112957610100808354040283529160200191611154565b820191906000526020600020905b81548152906001019060200180831161113757829003601f168201915b50505091835250506004820154602082015260059091015460ff161515604090910152835184908390811061118b5761118b6128f3565b602002602001018190525080806111a190612777565b915050610fc0565b5050919050565b6000600560006111be611f1b565b6001600160a01b03168152602080820192909252604090810160009081208582529092529020805490915082146112205760405162461bcd60e51b815260206004820152600660248201526537379039bab160d11b6044820152606401610581565b60038101805460ff1916905581611235611f1b565b6001600160a01b03167f36ea5cd5608625e789af0282eecdb4eae1cb7c1cf6d0ec3f9a84f35be850260b60405160405180910390a35050565b6000828152600660205260409020611284611f1b565b60018201546001600160a01b039081169116146112cf5760405162461bcd60e51b81526020600482015260096024820152683737ba1037bbb732b960b91b6044820152606401610581565b60058101805460ff191683151590811790915560405190815283907f8e967a27b78a41ef542ae8605776d411c12e7033f60eb40be0d4066ff41991f29060200160405180910390a2505050565b60026020819052600091825260409091208054600182015492820154600383015460048401805493956001600160a01b031694929391929161135d90612595565b80601f016020809104026020016040519081016040528092919081815260200182805461138990612595565b80156113d65780601f106113ab576101008083540402835291602001916113d6565b820191906000526020600020905b8154815290600101906020018083116113b957829003601f168201915b5050505050908060050180546113eb90612595565b80601f016020809104026020016040519081016040528092919081815260200182805461141790612595565b80156114645780601f1061143957610100808354040283529160200191611464565b820191906000526020600020905b81548152906001019060200180831161144757829003601f168201915b5050506006909301549192505060ff1687565b6000888152600260208181526040808420815160e0810183528154815260018201546001600160a01b0316938101939093529283015490820152600382015460608201526004820180549192916080840191906114d390612595565b80601f01602080910402602001604051908101604052809291908181526020018280546114ff90612595565b801561154c5780601f106115215761010080835404028352916020019161154c565b820191906000526020600020905b81548152906001019060200180831161152f57829003601f168201915b5050505050815260200160058201805461156590612595565b80601f016020809104026020016040519081016040528092919081815260200182805461159190612595565b80156115de5780601f106115b3576101008083540402835291602001916115de565b820191906000526020600020905b8154815290600101906020018083116115c157829003601f168201915b50505091835250506006919091015460ff16151560209091015260c081015190915061163c5760405162461bcd60e51b815260206004820152600d60248201526c34b730b1ba34bb3290383630b760991b6044820152606401610581565b7f00000000000000000000000000000000000000000000000000000000000000006001600160a01b031663d505accf611673611f1b565b60208401516040516001600160e01b031960e085901b1681526001600160a01b03928316600482015291166024820152604481018990526064810188905260ff8716608482015260a4810186905260c4810185905260e401600060405180830381600087803b1580156116e557600080fd5b505af11580156116f9573d6000803e3d6000fd5b5050505061170889898961088a565b505050505050505050565b6001600160a01b03821660009081526003602090815260408083208054825181850281018501909352808352849383018282801561177057602002820191906000526020600020905b81548152602001906001019080831161175c575b5050505050905060005b8151811015611830576001600160a01b0384166000908152600560205260408120835182908590859081106117b1576117b16128f3565b602090810291909101810151825281810192909252604090810160002081516080810183528154815260018201546001600160a01b03169381019390935260028101549183018290526003015460ff1615156060830152909150421161181d5760019350505050611837565b508061182881612777565b91505061177a565b5060009150505b92915050565b6001600160a01b038116600090815260036020908152604080832080548251818502810185019093528083526060949383018282801561189c57602002820191906000526020600020905b815481526020019060010190808311611888575b50505050509050805167ffffffffffffffff8111156118bd576118bd6125cf565b60405190808252806020026020018201604052801561193957816020015b6119266040518060e001604052806000815260200160006001600160a01b03168152602001600081526020016000815260200160608152602001606081526020016000151581525090565b8152602001906001900390816118db5790505b50915060005b81518110156111a9576002600083838151811061195e5761195e6128f3565b602002602001015181526020019081526020016000206040518060e0016040529081600082015481526020016001820160009054906101000a90046001600160a01b03166001600160a01b03166001600160a01b0316815260200160028201548152602001600382015481526020016004820180546119dc90612595565b80601f0160208091040260200160405190810160405280929190818152602001828054611a0890612595565b8015611a555780601f10611a2a57610100808354040283529160200191611a55565b820191906000526020600020905b815481529060010190602001808311611a3857829003601f168201915b50505050508152602001600582018054611a6e90612595565b80601f0160208091040260200160405190810160405280929190818152602001828054611a9a90612595565b8015611ae75780601f10611abc57610100808354040283529160200191611ae7565b820191906000526020600020905b815481529060010190602001808311611aca57829003601f168201915b50505091835250506006919091015460ff1615156020909101528351849083908110611b1557611b156128f3565b60200260200101819052508080611b2b90612777565b91505061193f565b60036020528160005260406000208181548110610eec57600080fd5b6001811015611b8c5760405162461bcd60e51b81526020600482015260096024820152686d6f6e7468733e3d3160b81b6044820152606401610581565b6000828152600260208181526040808420815160e0810183528154815260018201546001600160a01b031693810193909352928301549082015260038201546060820152600482018054919291608084019190611be890612595565b80601f0160208091040260200160405190810160405280929190818152602001828054611c1490612595565b8015611c615780601f10611c3657610100808354040283529160200191611c61565b820191906000526020600020905b815481529060010190602001808311611c4457829003601f168201915b50505050508152602001600582018054611c7a90612595565b80601f0160208091040260200160405190810160405280929190818152602001828054611ca690612595565b8015611cf35780601f10611cc857610100808354040283529160200191611cf3565b820191906000526020600020905b815481529060010190602001808311611cd657829003601f168201915b50505091835250506006919091015460ff90811615156020928301526001600160a01b03871660009081526005835260408082208883529093529190912060038101549293509116611d775760405162461bcd60e51b815260206004820152600d60248201526c30baba37a932b732bb9037b33360991b6044820152606401610581565b4281600201541115611dbd5760405162461bcd60e51b815260206004820152600f60248201526e1b9bdd081e595d08195e1c1a5c9959608a1b6044820152606401610581565b6000838360400151611dcf919061287a565b60208401516040516323b872dd60e01b81526001600160a01b0389811660048301529182166024820152604481018390529192507f000000000000000000000000000000000000000000000000000000000000000016906323b872dd906064016020604051808303816000875af1158015611e4e573d6000803e3d6000fd5b505050506040513d601f19601f82011682018060405250810190611e729190612891565b611eb45760405162461bcd60e51b81526020600482015260136024820152721d1c985b9cd9995c919c9bdb4819985a5b1959606a1b6044820152606401610581565b60608301514290611ec690869061287a565b611ed090826128ae565b6002840181905560408051878152602081019290925287916001600160a01b038a16917f97d5a61531816e9a24ba9de00a9c6c7e9e779fe86f65ee2f1da5c2699a31831c9101610caa565b60006001600160a01b037f0000000000000000000000000000000000000000000000000000000000000000163303611f5a575060271936013560601c90565b503390565b6040518060c001604052806000815260200160006001600160a01b031681526020016060815260200160608152602001600081526020016000151581525090565b600060208284031215611fb257600080fd5b5035919050565b6000815180845260005b81811015611fdf57602081850181015186830182015201611fc3565b506000602082860101526020601f19601f83011685010191505092915050565b8051825260018060a01b0360208201511660208301526000604082015160c0604085015261203060c0850182611fb9565b9050606083015184820360608601526120498282611fb9565b9150506080830151608085015260a0830151151560a08501528091505092915050565b60208152600061207f6020830184611fff565b9392505050565b60008083601f84011261209857600080fd5b50813567ffffffffffffffff8111156120b057600080fd5b6020830191508360208285010111156120c857600080fd5b9250929050565b80151581146120dd57600080fd5b50565b600080600080600080600060a0888a0312156120fb57600080fd5b8735965060208801359550604088013567ffffffffffffffff8082111561212157600080fd5b61212d8b838c01612086565b909750955060608a013591508082111561214657600080fd5b506121538a828b01612086565b9094509250506080880135612167816120cf565b8091505092959891949750929550565b6000806000806000806080878903121561219057600080fd5b8635955060208701359450604087013567ffffffffffffffff808211156121b657600080fd5b6121c28a838b01612086565b909650945060608901359150808211156121db57600080fd5b506121e889828a01612086565b979a9699509497509295939492505050565b60008060006060848603121561220f57600080fd5b83359250602084013591506040840135612228816120cf565b809150509250925092565b6000806000806040858703121561224957600080fd5b843567ffffffffffffffff8082111561226157600080fd5b61226d88838901612086565b9096509450602087013591508082111561228657600080fd5b5061229387828801612086565b95989497509550505050565b80356001600160a01b03811681146122b657600080fd5b919050565b600080604083850312156122ce57600080fd5b6122d78361229f565b946020939093013593505050565b6000602082840312156122f757600080fd5b61207f8261229f565b6000602080830181845280855180835260408601915060408160051b870101925083870160005b8281101561235557603f19888603018452612343858351611fff565b94509285019290850190600101612327565b5092979650505050505050565b6000806040838503121561237557600080fd5b823591506020830135612387816120cf565b809150509250929050565b87815260018060a01b038716602082015285604082015284606082015260e0608082015260006123c560e0830186611fb9565b82810360a08401526123d78186611fb9565b91505082151560c083015298975050505050505050565b600080600080600080600080610100898b03121561240b57600080fd5b88359750602089013596506040890135612424816120cf565b9550606089013594506080890135935060a089013560ff8116811461244857600080fd5b979a969950949793969295929450505060c08201359160e0013590565b6000806040838503121561247857600080fd5b6124818361229f565b915061248f6020840161229f565b90509250929050565b60006020808301818452808551808352604092508286019150828160051b87010184880160005b8381101561255457888303603f19018552815180518452878101516001600160a01b03168885015286810151878501526060808201519085015260808082015160e0828701819052919061251583880182611fb9565b9250505060a080830151868303828801526125308382611fb9565b60c094850151151597909401969096525050948701949250908601906001016124bf565b509098975050505050505050565b60008060006060848603121561257757600080fd5b6125808461229f565b95602085013595506040909401359392505050565b600181811c908216806125a957607f821691505b6020821081036125c957634e487b7160e01b600052602260045260246000fd5b50919050565b634e487b7160e01b600052604160045260246000fd5b601f82111561262f57600081815260208120601f850160051c8101602086101561260c5750805b601f850160051c820191505b8181101561262b57828155600101612618565b5050505b505050565b67ffffffffffffffff83111561264c5761264c6125cf565b6126608361265a8354612595565b836125e5565b6000601f841160018114612694576000851561267c5750838201355b600019600387901b1c1916600186901b1783556126ee565b600083815260209020601f19861690835b828110156126c557868501358255602094850194600190920191016126a5565b50868210156126e25760001960f88860031b161c19848701351681555b505060018560011b0183555b5050505050565b81835281816020850137506000828201602090810191909152601f909101601f19169091010190565b8681526080602082015260006127386080830187896126f5565b828103604084015261274b8186886126f5565b9150508215156060830152979650505050505050565b634e487b7160e01b600052601160045260246000fd5b60006001820161278957612789612761565b5060010190565b815167ffffffffffffffff8111156127aa576127aa6125cf565b6127be816127b88454612595565b846125e5565b602080601f8311600181146127f357600084156127db5750858301515b600019600386901b1c1916600185901b17855561262b565b600085815260208120601f198616915b8281101561282257888601518255948401946001909101908401612803565b50858210156128405787850151600019600388901b60f8161c191681555b5050505050600190811b01905550565b8481528360208201526060604082015260006128706060830184866126f5565b9695505050505050565b808202811582820484141761183757611837612761565b6000602082840312156128a357600080fd5b815161207f816120cf565b8082018082111561183757611837612761565b6040815260006128d56040830186886126f5565b82810360208401526128e88185876126f5565b979650505050505050565b634e487b7160e01b600052603260045260246000fdfea2646970667358221220426170be234ff4009b41625570461add0d3b144eb85083ab39cfcf04af6adedd64736f6c63430008150033",
  "linkReferences": {},
  "deployedLinkReferences": {}
}