{
  "_format": "hh-sol-artifact-1",
  "contractName": "MonPayRelayer",
  "sourceName": "contracts/MonPayRelayer.sol",
  "abi": [
    {
      "inputs": [
        {
          "components": [
            {
              "internalType": "address",
              "name": "from",
              "type": "address"
            },
            {
              "internalType": "address",
              "name": "to",
              "type": "address"
            },
            {
              "internalType": "uint256",
              "name": "value",
              "type": "uint256"
            },
            {
              "internalType": "uint256",
              "name": "gas",
              "type": "uint256"
            },
            {
              "internalType": "uint256",
              "name": "nonce",
              "type": "uint256"
            },
            {
              "internalType": "bytes",
              "name": "data",
              "type": "bytes"
            }
          ],
          "internalType": "struct MonPayRelayer.Request",
          "name": "req",
          "type": "tuple"
        },
        {
          "internalType": "bytes",
          "name": "signature",
          "type": "bytes"
        }
      ],
      "name": "execute",
      "outputs": [
        {
          "internalType": "bool",
          "name": "",
          "type": "bool"
        },
        {
          "internalType": "bytes",
          "name": "",
          "type": "bytes"
        }
      ],
      "stateMutability": "payable",
      "type": "function"
    },
    {
      "inputs": [
        {
          "internalType": "address",
          "name": "from",
          "type": "address"
        }
      ],
      "name": "getNonce",
      "outputs": [
        {
          "internalType": "uint256",
          "name": "",
          "type": "uint256"
        }
      ],
      "stateMutability": "view",
      "type": "function"
    },
    {
      "inputs": [
        {
          "internalType": "address",
          "name": "",
          "type": "address"
        }
      ],
      "name": "nonces",
      "outputs": [
        {
          "internalType": "uint256",
          "name": "",
          "type": "uint256"
        }
      ],
      "stateMutability": "view",
      "type": "function"
    },
    {
      "inputs": [
        {
          "components": [
            {
              "internalType": "address",
              "name": "from",
              "type": "address"
            },
            {
              "internalType": "address",
              "name": "to",
              "type": "address"
            },
            {
              "internalType": "uint256",
              "name": "value",
              "type": "uint256"
            },
            {
              "internalType": "uint256",
              "name": "gas",
              "type": "uint256"
            },
            {
              "internalType": "uint256",
              "name": "nonce",
              "type": "uint256"
            },
            {
              "internalType": "bytes",
              "name": "data",
              "type": "bytes"
            }
          ],
          "internalType": "struct MonPayRelayer.Request",
          "name": "req",
          "type": "tuple"
        },
        {
          "internalType": "bytes",
          "name": "signature",
          "type": "bytes"
        }
      ],
      "name": "verify",
      "outputs": [
        {
          "internalType": "bool",
          "name": "",
          "type": "bool"
        }
      ],
      "stateMutability": "view",
      "type": "function"
    }
  ],
  "bytecode": "0x608060405234801561001057600080fd5b506107e1806100206000396000f3fe60806040526004361061003f5760003560e01c80632d0335ab1461004457806347153f821461008d5780637ecebe00146100ae578063bf5d3bdb146100db575b600080fd5b34801561005057600080fd5b5061007a61005f366004610552565b6001600160a01b031660009081526020819052604090205490565b6040519081526020015b60405180910390f35b6100a061009b366004610582565b61010b565b604051610084929190610645565b3480156100ba57600080fd5b5061007a6100c9366004610552565b60006020819052908152604090205481565b3480156100e757600080fd5b506100fb6100f6366004610582565b61029b565b6040519015158152602001610084565b6000606061011a85858561029b565b6101755760405162461bcd60e51b815260206004820152602160248201527f4d6f6e50617952656c617965723a207369676e6174757265206d69736d6174636044820152600d60fb1b60648201526084015b60405180910390fd5b61018460808601356001610697565b6000806101946020890189610552565b6001600160a01b03166001600160a01b03168152602001908152602001600020819055506000808660200160208101906101ce9190610552565b6001600160a01b0316606088013560408901356101ee60a08b018b6106b0565b6101fb60208d018d610552565b3360405160200161020f94939291906106fe565b60408051601f19818403018152908290526102299161072e565b600060405180830381858888f193505050503d8060008114610267576040519150601f19603f3d011682016040523d82523d6000602084013e61026c565b606091505b509092509050610281603f606089013561074a565b5a1161028f5761028f61076c565b90969095509350505050565b6000806102a9858585610314565b905060808501356000806102c06020890189610552565b6001600160a01b03166001600160a01b031681526020019081526020016000205414801561030b57506102f66020860186610552565b6001600160a01b0316816001600160a01b0316145b95945050505050565b6000807f12285a481f031b924d40dab1f93173ad188014143d48f2746ccc272ee2f673246103456020870187610552565b6103556040880160208901610552565b6040880135606089013560808a013561037160a08c018c6106b0565b60405161037f929190610782565b6040805191829003822060208301989098526001600160a01b0396871690820152949093166060850152608084019190915260a083015260c082015260e08101919091526101000160408051601f19818403018152908290528051602091820120925060009161040991839185910161190160f01b81526002810192909252602282015260420190565b604051602081830303815290604052805190602001209050600080600061046588888080601f0160208091040260200160405190810160405280939291908181526020018383808284376000920191909152506104d892505050565b60408051600081526020810180835289905260ff8316918101919091526060810184905260808101839052929550909350915060019060a0016020604051602081039080840390855afa1580156104c0573d6000803e3d6000fd5b5050604051601f1901519a9950505050505050505050565b6000806000835160411461051f5760405162461bcd60e51b815260206004820152600e60248201526d0c4c2c840e6d2ce40d8cadccee8d60931b604482015260640161016c565b50505060208101516040820151606083015160001a601b81101561054b57610548601b82610792565b90505b9193909250565b60006020828403121561056457600080fd5b81356001600160a01b038116811461057b57600080fd5b9392505050565b60008060006040848603121561059757600080fd5b833567ffffffffffffffff808211156105af57600080fd5b9085019060c082880312156105c357600080fd5b909350602085013590808211156105d957600080fd5b818601915086601f8301126105ed57600080fd5b8135818111156105fc57600080fd5b87602082850101111561060e57600080fd5b6020830194508093505050509250925092565b60005b8381101561063c578181015183820152602001610624565b50506000910152565b8215158152604060208201526000825180604084015261066c816060850160208701610621565b601f01601f1916919091016060019392505050565b634e487b7160e01b600052601160045260246000fd5b808201808211156106aa576106aa610681565b92915050565b6000808335601e198436030181126106c757600080fd5b83018035915067ffffffffffffffff8211156106e257600080fd5b6020019150368190038213156106f757600080fd5b9250929050565b838582376bffffffffffffffffffffffff19606093841b811694909101938452911b166014820152602801919050565b60008251610740818460208701610621565b9190910192915050565b60008261076757634e487b7160e01b600052601260045260246000fd5b500490565b634e487b7160e01b600052600160045260246000fd5b8183823760009101908152919050565b60ff81811683821601908111156106aa576106aa61068156fea2646970667358221220ef555a3ca9e6e2f1dbd9b62456c61559f30e2c68d782dfcf3144f2bb387744b864736f6c63430008150033",
  "linkReferences": {},
  "deployedLinkReferences": {}
}